{
  "_format": "hh-sol-artifact-1",
  "contractName": "PharmaChainV2",
  "sourceName": "contracts/PharmaChainV2.sol",
  "abi": [
    {
      "inputs": [],
      "name": "AccessControlBadConfirmation",
      "type": "error"
    },
    {
      "inputs": [
        {
          "internalType": "address",
          "name": "account",
          "type": "address"
        },
        {
          "internalType": "bytes32",
          "name": "neededRole",
          "type": "bytes32"
        }
      ],
      "name": "AccessControlUnauthorizedAccount",
      "type": "error"
    },
    {
      "inputs": [
        {
          "internalType": "address",
          "name": "target",
          "type": "address"
        }
      ],
      "name": "AddressEmptyCode",
      "type": "error"
    },
    {
      "inputs": [],
      "name": "ArrayLengthMismatch",
      "type": "error"
    },
    {
      "inputs": [],
      "name": "BatchAlreadyRecalled",
      "type": "error"
    },
    {
      "inputs": [],
      "name": "BatchLimitExceeded",
      "type": "error"
    },
    {
      "inputs": [],
      "name": "BatchLocked",
      "type": "error"
    },
    {
      "inputs": [],
      "name": "BatchNotFound",
      "type": "error"
    },
    {
      "inputs": [
        {
          "internalType": "address",
          "name": "implementation",
          "type": "address"
        }
      ],
      "name": "ERC1967InvalidImplementation",
      "type": "error"
    },
    {
      "inputs": [],
      "name": "ERC1967NonPayable",
      "type": "error"
    },
    {
      "inputs": [],
      "name": "EmptyArray",
      "type": "error"
    },
    {
      "inputs": [],
      "name": "FailedCall",
      "type": "error"
    },
    {
      "inputs": [],
      "name": "InsufficientQuantity",
      "type": "error"
    },
    {
      "inputs": [],
      "name": "InvalidBatchId",
      "type": "error"
    },
    {
      "inputs": [],
      "name": "InvalidIPFSHash",
      "type": "error"
    },
    {
      "inputs": [],
      "name": "InvalidIdentityHash",
      "type": "error"
    },
    {
      "inputs": [],
      "name": "InvalidInitialization",
      "type": "error"
    },
    {
      "inputs": [],
      "name": "InvalidQuantity",
      "type": "error"
    },
    {
      "inputs": [],
      "name": "InvalidRole",
      "type": "error"
    },
    {
      "inputs": [],
      "name": "InvalidState",
      "type": "error"
    },
    {
      "inputs": [],
      "name": "InvalidTransfer",
      "type": "error"
    },
    {
      "inputs": [],
      "name": "NotBatchOwner",
      "type": "error"
    },
    {
      "inputs": [],
      "name": "NotInitializing",
      "type": "error"
    },
    {
      "inputs": [],
      "name": "ParticipantAlreadyRegistered",
      "type": "error"
    },
    {
      "inputs": [],
      "name": "ParticipantNotRegistered",
      "type": "error"
    },
    {
      "inputs": [],
      "name": "ReentrancyGuardReentrantCall",
      "type": "error"
    },
    {
      "inputs": [],
      "name": "SelfTransferNotAllowed",
      "type": "error"
    },
    {
      "inputs": [],
      "name": "UUPSUnauthorizedCallContext",
      "type": "error"
    },
    {
      "inputs": [
        {
          "internalType": "bytes32",
          "name": "slot",
          "type": "bytes32"
        }
      ],
      "name": "UUPSUnsupportedProxiableUUID",
      "type": "error"
    },
    {
      "inputs": [],
      "name": "Unauthorized",
      "type": "error"
    },
    {
      "anonymous": false,
      "inputs": [
        {
          "indexed": true,
          "internalType": "uint256",
          "name": "batchId",
          "type": "uint256"
        },
        {
          "indexed": true,
          "internalType": "address",
          "name": "manufacturer",
          "type": "address"
        },
        {
          "indexed": false,
          "internalType": "uint256",
          "name": "quantity",
          "type": "uint256"
        },
        {
          "indexed": false,
          "internalType": "string",
          "name": "unit",
          "type": "string"
        }
      ],
      "name": "BatchCreated",
      "type": "event"
    },
    {
      "anonymous": false,
      "inputs": [
        {
          "indexed": true,
          "internalType": "uint256",
          "name": "batchId",
          "type": "uint256"
        },
        {
          "indexed": true,
          "internalType": "address",
          "name": "recalledBy",
          "type": "address"
        },
        {
          "indexed": false,
          "internalType": "string",
          "name": "reason",
          "type": "string"
        }
      ],
      "name": "BatchRecalled",
      "type": "event"
    },
    {
      "anonymous": false,
      "inputs": [
        {
          "indexed": true,
          "internalType": "uint256",
          "name": "parentBatchId",
          "type": "uint256"
        },
        {
          "indexed": true,
          "internalType": "uint256",
          "name": "childBatchId",
          "type": "uint256"
        },
        {
          "indexed": false,
          "internalType": "uint256",
          "name": "amount",
          "type": "uint256"
        },
        {
          "indexed": true,
          "internalType": "address",
          "name": "owner",
          "type": "address"
        }
      ],
      "name": "BatchSplit",
      "type": "event"
    },
    {
      "anonymous": false,
      "inputs": [
        {
          "indexed": true,
          "internalType": "uint256",
          "name": "parentBatchId",
          "type": "uint256"
        },
        {
          "indexed": false,
          "internalType": "uint256",
          "name": "newBatchId",
          "type": "uint256"
        },
        {
          "indexed": true,
          "internalType": "address",
          "name": "from",
          "type": "address"
        },
        {
          "indexed": true,
          "internalType": "address",
          "name": "to",
          "type": "address"
        },
        {
          "indexed": false,
          "internalType": "uint256",
          "name": "quantity",
          "type": "uint256"
        }
      ],
      "name": "BatchTransfer",
      "type": "event"
    },
    {
      "anonymous": false,
      "inputs": [
        {
          "indexed": true,
          "internalType": "uint256",
          "name": "firstBatchId",
          "type": "uint256"
        },
        {
          "indexed": false,
          "internalType": "uint256",
          "name": "count",
          "type": "uint256"
        },
        {
          "indexed": true,
          "internalType": "address",
          "name": "manufacturer",
          "type": "address"
        },
        {
          "indexed": false,
          "internalType": "string[]",
          "name": "manufacturerBatchNumbers",
          "type": "string[]"
        }
      ],
      "name": "BulkBatchCreated",
      "type": "event"
    },
    {
      "anonymous": false,
      "inputs": [
        {
          "indexed": true,
          "internalType": "address",
          "name": "participant",
          "type": "address"
        },
        {
          "indexed": false,
          "internalType": "bytes32",
          "name": "oldHash",
          "type": "bytes32"
        },
        {
          "indexed": false,
          "internalType": "bytes32",
          "name": "newHash",
          "type": "bytes32"
        }
      ],
      "name": "IdentityHashUpdated",
      "type": "event"
    },
    {
      "anonymous": false,
      "inputs": [
        {
          "indexed": false,
          "internalType": "uint64",
          "name": "version",
          "type": "uint64"
        }
      ],
      "name": "Initialized",
      "type": "event"
    },
    {
      "anonymous": false,
      "inputs": [
        {
          "indexed": true,
          "internalType": "uint256",
          "name": "batchId",
          "type": "uint256"
        },
        {
          "indexed": false,
          "internalType": "string",
          "name": "ipfsHash",
          "type": "string"
        },
        {
          "indexed": false,
          "internalType": "string",
          "name": "docType",
          "type": "string"
        },
        {
          "indexed": true,
          "internalType": "address",
          "name": "addedBy",
          "type": "address"
        }
      ],
      "name": "MetadataAdded",
      "type": "event"
    },
    {
      "anonymous": false,
      "inputs": [
        {
          "indexed": true,
          "internalType": "uint256",
          "name": "batchId",
          "type": "uint256"
        },
        {
          "indexed": false,
          "internalType": "string",
          "name": "ipfsHash",
          "type": "string"
        },
        {
          "indexed": true,
          "internalType": "address",
          "name": "addedBy",
          "type": "address"
        }
      ],
      "name": "MetadataAdded",
      "type": "event"
    },
    {
      "anonymous": false,
      "inputs": [
        {
          "indexed": true,
          "internalType": "address",
          "name": "participant",
          "type": "address"
        },
        {
          "indexed": true,
          "internalType": "bytes32",
          "name": "role",
          "type": "bytes32"
        },
        {
          "indexed": false,
          "internalType": "bytes32",
          "name": "identityHash",
          "type": "bytes32"
        }
      ],
      "name": "ParticipantRegistered",
      "type": "event"
    },
    {
      "anonymous": false,
      "inputs": [
        {
          "indexed": true,
          "internalType": "bytes32",
          "name": "role",
          "type": "bytes32"
        },
        {
          "indexed": true,
          "internalType": "bytes32",
          "name": "previousAdminRole",
          "type": "bytes32"
        },
        {
          "indexed": true,
          "internalType": "bytes32",
          "name": "newAdminRole",
          "type": "bytes32"
        }
      ],
      "name": "RoleAdminChanged",
      "type": "event"
    },
    {
      "anonymous": false,
      "inputs": [
        {
          "indexed": true,
          "internalType": "bytes32",
          "name": "role",
          "type": "bytes32"
        },
        {
          "indexed": true,
          "internalType": "address",
          "name": "account",
          "type": "address"
        },
        {
          "indexed": true,
          "internalType": "address",
          "name": "sender",
          "type": "address"
        }
      ],
      "name": "RoleGranted",
      "type": "event"
    },
    {
      "anonymous": false,
      "inputs": [
        {
          "indexed": true,
          "internalType": "bytes32",
          "name": "role",
          "type": "bytes32"
        },
        {
          "indexed": true,
          "internalType": "address",
          "name": "account",
          "type": "address"
        },
        {
          "indexed": true,
          "internalType": "address",
          "name": "sender",
          "type": "address"
        }
      ],
      "name": "RoleRevoked",
      "type": "event"
    },
    {
      "anonymous": false,
      "inputs": [
        {
          "indexed": true,
          "internalType": "uint256",
          "name": "batchId",
          "type": "uint256"
        },
        {
          "indexed": false,
          "internalType": "enum PharmaChain.Status",
          "name": "status",
          "type": "uint8"
        }
      ],
      "name": "StatusUpdate",
      "type": "event"
    },
    {
      "anonymous": false,
      "inputs": [
        {
          "indexed": true,
          "internalType": "uint256",
          "name": "batchId",
          "type": "uint256"
        },
        {
          "indexed": true,
          "internalType": "address",
          "name": "from",
          "type": "address"
        },
        {
          "indexed": true,
          "internalType": "address",
          "name": "to",
          "type": "address"
        }
      ],
      "name": "Transfer",
      "type": "event"
    },
    {
      "anonymous": false,
      "inputs": [
        {
          "indexed": true,
          "internalType": "uint256",
          "name": "batchId",
          "type": "uint256"
        },
        {
          "indexed": true,
          "internalType": "address",
          "name": "from",
          "type": "address"
        },
        {
          "indexed": true,
          "internalType": "address",
          "name": "to",
          "type": "address"
        }
      ],
      "name": "TransferInitiated",
      "type": "event"
    },
    {
      "anonymous": false,
      "inputs": [
        {
          "indexed": true,
          "internalType": "address",
          "name": "implementation",
          "type": "address"
        }
      ],
      "name": "Upgraded",
      "type": "event"
    },
    {
      "inputs": [],
      "name": "DEFAULT_ADMIN_ROLE",
      "outputs": [
        {
          "internalType": "bytes32",
          "name": "",
          "type": "bytes32"
        }
      ],
      "stateMutability": "view",
      "type": "function"
    },
    {
      "inputs": [],
      "name": "DISTRIBUTOR_ROLE",
      "outputs": [
        {
          "internalType": "bytes32",
          "name": "",
          "type": "bytes32"
        }
      ],
      "stateMutability": "view",
      "type": "function"
    },
    {
      "inputs": [],
      "name": "MANUFACTURER_ROLE",
      "outputs": [
        {
          "internalType": "bytes32",
          "name": "",
          "type": "bytes32"
        }
      ],
      "stateMutability": "view",
      "type": "function"
    },
    {
      "inputs": [],
      "name": "PHARMACY_ROLE",
      "outputs": [
        {
          "internalType": "bytes32",
          "name": "",
          "type": "bytes32"
        }
      ],
      "stateMutability": "view",
      "type": "function"
    },
    {
      "inputs": [],
      "name": "UPGRADE_INTERFACE_VERSION",
      "outputs": [
        {
          "internalType": "string",
          "name": "",
          "type": "string"
        }
      ],
      "stateMutability": "view",
      "type": "function"
    },
    {
      "inputs": [
        {
          "internalType": "uint256",
          "name": "batchId",
          "type": "uint256"
        }
      ],
      "name": "acceptTransfer",
      "outputs": [],
      "stateMutability": "nonpayable",
      "type": "function"
    },
    {
      "inputs": [
        {
          "internalType": "uint256",
          "name": "batchId",
          "type": "uint256"
        },
        {
          "internalType": "string",
          "name": "ipfsMetadataHash",
          "type": "string"
        }
      ],
      "name": "addMetadata",
      "outputs": [],
      "stateMutability": "nonpayable",
      "type": "function"
    },
    {
      "inputs": [
        {
          "internalType": "uint256",
          "name": "batchId",
          "type": "uint256"
        },
        {
          "internalType": "string",
          "name": "ipfsHash",
          "type": "string"
        },
        {
          "internalType": "string",
          "name": "docType",
          "type": "string"
        }
      ],
      "name": "addMetadata",
      "outputs": [],
      "stateMutability": "nonpayable",
      "type": "function"
    },
    {
      "inputs": [
        {
          "internalType": "uint256",
          "name": "batchId",
          "type": "uint256"
        }
      ],
      "name": "cancelTransfer",
      "outputs": [],
      "stateMutability": "nonpayable",
      "type": "function"
    },
    {
      "inputs": [
        {
          "internalType": "uint256",
          "name": "quantity",
          "type": "uint256"
        },
        {
          "internalType": "string",
          "name": "unit",
          "type": "string"
        }
      ],
      "name": "createBatch",
      "outputs": [
        {
          "internalType": "uint256",
          "name": "",
          "type": "uint256"
        }
      ],
      "stateMutability": "nonpayable",
      "type": "function"
    },
    {
      "inputs": [
        {
          "internalType": "uint256",
          "name": "quantity",
          "type": "uint256"
        },
        {
          "internalType": "string",
          "name": "unit",
          "type": "string"
        },
        {
          "internalType": "string",
          "name": "ipfsMetadataHash",
          "type": "string"
        }
      ],
      "name": "createBatchWithMetadata",
      "outputs": [
        {
          "internalType": "uint256",
          "name": "",
          "type": "uint256"
        }
      ],
      "stateMutability": "nonpayable",
      "type": "function"
    },
    {
      "inputs": [
        {
          "internalType": "uint256[]",
          "name": "quantities",
          "type": "uint256[]"
        },
        {
          "internalType": "string[]",
          "name": "units",
          "type": "string[]"
        },
        {
          "internalType": "string[]",
          "name": "ipfsHashes",
          "type": "string[]"
        },
        {
          "internalType": "string[]",
          "name": "manufacturerBatchNumbers",
          "type": "string[]"
        }
      ],
      "name": "createBatchesBulk",
      "outputs": [
        {
          "internalType": "uint256",
          "name": "firstBatchId",
          "type": "uint256"
        }
      ],
      "stateMutability": "nonpayable",
      "type": "function"
    },
    {
      "inputs": [],
      "name": "getAllBatchIds",
      "outputs": [
        {
          "internalType": "uint256[]",
          "name": "",
          "type": "uint256[]"
        }
      ],
      "stateMutability": "view",
      "type": "function"
    },
    {
      "inputs": [
        {
          "internalType": "uint256",
          "name": "batchId",
          "type": "uint256"
        }
      ],
      "name": "getBatch",
      "outputs": [
        {
          "components": [
            {
              "internalType": "uint256",
              "name": "id",
              "type": "uint256"
            },
            {
              "internalType": "uint256",
              "name": "parentBatchId",
              "type": "uint256"
            },
            {
              "internalType": "uint256",
              "name": "quantity",
              "type": "uint256"
            },
            {
              "internalType": "string",
              "name": "unit",
              "type": "string"
            },
            {
              "internalType": "address",
              "name": "currentOwner",
              "type": "address"
            },
            {
              "internalType": "address",
              "name": "manufacturer",
              "type": "address"
            },
            {
              "internalType": "enum PharmaChain.Status",
              "name": "status",
              "type": "uint8"
            },
            {
              "internalType": "address",
              "name": "pendingRecipient",
              "type": "address"
            },
            {
              "internalType": "uint256",
              "name": "createdAt",
              "type": "uint256"
            },
            {
              "internalType": "uint256",
              "name": "lastUpdated",
              "type": "uint256"
            }
          ],
          "internalType": "struct PharmaChain.Batch",
          "name": "",
          "type": "tuple"
        }
      ],
      "stateMutability": "view",
      "type": "function"
    },
    {
      "inputs": [
        {
          "internalType": "address",
          "name": "owner",
          "type": "address"
        }
      ],
      "name": "getBatchesByOwner",
      "outputs": [
        {
          "internalType": "uint256[]",
          "name": "",
          "type": "uint256[]"
        }
      ],
      "stateMutability": "view",
      "type": "function"
    },
    {
      "inputs": [
        {
          "internalType": "address",
          "name": "participant",
          "type": "address"
        }
      ],
      "name": "getParticipantInfo",
      "outputs": [
        {
          "internalType": "bool",
          "name": "registered",
          "type": "bool"
        },
        {
          "internalType": "bytes32",
          "name": "identityHash",
          "type": "bytes32"
        }
      ],
      "stateMutability": "view",
      "type": "function"
    },
    {
      "inputs": [
        {
          "internalType": "bytes32",
          "name": "role",
          "type": "bytes32"
        }
      ],
      "name": "getRoleAdmin",
      "outputs": [
        {
          "internalType": "bytes32",
          "name": "",
          "type": "bytes32"
        }
      ],
      "stateMutability": "view",
      "type": "function"
    },
    {
      "inputs": [],
      "name": "getTotalBatches",
      "outputs": [
        {
          "internalType": "uint256",
          "name": "",
          "type": "uint256"
        }
      ],
      "stateMutability": "view",
      "type": "function"
    },
    {
      "inputs": [
        {
          "internalType": "address",
          "name": "account",
          "type": "address"
        }
      ],
      "name": "grantDistributorRole",
      "outputs": [],
      "stateMutability": "nonpayable",
      "type": "function"
    },
    {
      "inputs": [
        {
          "internalType": "address",
          "name": "account",
          "type": "address"
        }
      ],
      "name": "grantManufacturerRole",
      "outputs": [],
      "stateMutability": "nonpayable",
      "type": "function"
    },
    {
      "inputs": [
        {
          "internalType": "address",
          "name": "account",
          "type": "address"
        }
      ],
      "name": "grantPharmacyRole",
      "outputs": [],
      "stateMutability": "nonpayable",
      "type": "function"
    },
    {
      "inputs": [
        {
          "internalType": "bytes32",
          "name": "role",
          "type": "bytes32"
        },
        {
          "internalType": "address",
          "name": "account",
          "type": "address"
        }
      ],
      "name": "grantRole",
      "outputs": [],
      "stateMutability": "nonpayable",
      "type": "function"
    },
    {
      "inputs": [
        {
          "internalType": "bytes32",
          "name": "role",
          "type": "bytes32"
        },
        {
          "internalType": "address",
          "name": "account",
          "type": "address"
        }
      ],
      "name": "hasRole",
      "outputs": [
        {
          "internalType": "bool",
          "name": "",
          "type": "bool"
        }
      ],
      "stateMutability": "view",
      "type": "function"
    },
    {
      "inputs": [
        {
          "internalType": "address",
          "name": "",
          "type": "address"
        }
      ],
      "name": "identityHashes",
      "outputs": [
        {
          "internalType": "bytes32",
          "name": "",
          "type": "bytes32"
        }
      ],
      "stateMutability": "view",
      "type": "function"
    },
    {
      "inputs": [
        {
          "internalType": "address",
          "name": "admin",
          "type": "address"
        }
      ],
      "name": "initialize",
      "outputs": [],
      "stateMutability": "nonpayable",
      "type": "function"
    },
    {
      "inputs": [
        {
          "internalType": "uint256",
          "name": "batchId",
          "type": "uint256"
        },
        {
          "internalType": "address",
          "name": "recipient",
          "type": "address"
        }
      ],
      "name": "initiateTransfer",
      "outputs": [],
      "stateMutability": "nonpayable",
      "type": "function"
    },
    {
      "inputs": [
        {
          "internalType": "address",
          "name": "",
          "type": "address"
        }
      ],
      "name": "isRegistered",
      "outputs": [
        {
          "internalType": "bool",
          "name": "",
          "type": "bool"
        }
      ],
      "stateMutability": "view",
      "type": "function"
    },
    {
      "inputs": [
        {
          "internalType": "uint256",
          "name": "batchId",
          "type": "uint256"
        }
      ],
      "name": "isTransferable",
      "outputs": [
        {
          "internalType": "bool",
          "name": "",
          "type": "bool"
        }
      ],
      "stateMutability": "view",
      "type": "function"
    },
    {
      "inputs": [],
      "name": "proxiableUUID",
      "outputs": [
        {
          "internalType": "bytes32",
          "name": "",
          "type": "bytes32"
        }
      ],
      "stateMutability": "view",
      "type": "function"
    },
    {
      "inputs": [
        {
          "internalType": "uint256",
          "name": "batchId",
          "type": "uint256"
        },
        {
          "internalType": "string",
          "name": "reason",
          "type": "string"
        }
      ],
      "name": "recallBatch",
      "outputs": [],
      "stateMutability": "nonpayable",
      "type": "function"
    },
    {
      "inputs": [
        {
          "internalType": "address",
          "name": "user",
          "type": "address"
        },
        {
          "internalType": "bytes32",
          "name": "role",
          "type": "bytes32"
        },
        {
          "internalType": "bytes32",
          "name": "identityHash",
          "type": "bytes32"
        }
      ],
      "name": "registerParticipant",
      "outputs": [],
      "stateMutability": "nonpayable",
      "type": "function"
    },
    {
      "inputs": [
        {
          "internalType": "bytes32",
          "name": "role",
          "type": "bytes32"
        },
        {
          "internalType": "address",
          "name": "callerConfirmation",
          "type": "address"
        }
      ],
      "name": "renounceRole",
      "outputs": [],
      "stateMutability": "nonpayable",
      "type": "function"
    },
    {
      "inputs": [
        {
          "internalType": "bytes32",
          "name": "role",
          "type": "bytes32"
        },
        {
          "internalType": "address",
          "name": "account",
          "type": "address"
        }
      ],
      "name": "revokeRole",
      "outputs": [],
      "stateMutability": "nonpayable",
      "type": "function"
    },
    {
      "inputs": [
        {
          "internalType": "uint256",
          "name": "parentBatchId",
          "type": "uint256"
        },
        {
          "internalType": "address",
          "name": "recipient",
          "type": "address"
        },
        {
          "internalType": "uint256",
          "name": "quantity",
          "type": "uint256"
        }
      ],
      "name": "sendBatch",
      "outputs": [
        {
          "internalType": "uint256",
          "name": "",
          "type": "uint256"
        }
      ],
      "stateMutability": "nonpayable",
      "type": "function"
    },
    {
      "inputs": [
        {
          "internalType": "uint256",
          "name": "parentBatchId",
          "type": "uint256"
        },
        {
          "internalType": "uint256",
          "name": "quantity",
          "type": "uint256"
        }
      ],
      "name": "splitBatch",
      "outputs": [
        {
          "internalType": "uint256",
          "name": "",
          "type": "uint256"
        }
      ],
      "stateMutability": "nonpayable",
      "type": "function"
    },
    {
      "inputs": [
        {
          "internalType": "bytes4",
          "name": "interfaceId",
          "type": "bytes4"
        }
      ],
      "name": "supportsInterface",
      "outputs": [
        {
          "internalType": "bool",
          "name": "",
          "type": "bool"
        }
      ],
      "stateMutability": "view",
      "type": "function"
    },
    {
      "inputs": [
        {
          "internalType": "address",
          "name": "user",
          "type": "address"
        },
        {
          "internalType": "bytes32",
          "name": "newHash",
          "type": "bytes32"
        }
      ],
      "name": "updateParticipantHash",
      "outputs": [],
      "stateMutability": "nonpayable",
      "type": "function"
    },
    {
      "inputs": [
        {
          "internalType": "address",
          "name": "newImplementation",
          "type": "address"
        },
        {
          "internalType": "bytes",
          "name": "data",
          "type": "bytes"
        }
      ],
      "name": "upgradeToAndCall",
      "outputs": [],
      "stateMutability": "payable",
      "type": "function"
    },
    {
      "inputs": [
        {
          "internalType": "address",
          "name": "participant",
          "type": "address"
        },
        {
          "internalType": "bytes32",
          "name": "claimedHash",
          "type": "bytes32"
        }
      ],
      "name": "verifyIdentity",
      "outputs": [
        {
          "internalType": "bool",
          "name": "matches",
          "type": "bool"
        }
      ],
      "stateMutability": "view",
      "type": "function"
    },
    {
      "inputs": [],
      "name": "version",
      "outputs": [
        {
          "internalType": "string",
          "name": "",
          "type": "string"
        }
      ],
      "stateMutability": "pure",
      "type": "function"
    }
  ],
  "bytecode": "0x60a06040523060805234801561001457600080fd5b5061001d610022565b6100d4565b7ff0c57e16840df040f15088dc2f81fe391c3923bec73e23a9662efc9c229c6a00805468010000000000000000900460ff16156100725760405163f92ee8a960e01b815260040160405180910390fd5b80546001600160401b03908116146100d15780546001600160401b0319166001600160401b0390811782556040519081527fc7f505b2f371ae2175ee4913f4499e1f2633a7b5936321eed1cdaeb6115181d29060200160405180910390a15b50565b6080516136616100fd600039600081816125ee01528181612617015261276201526136616000f3fe60806040526004361061023b5760003560e01c806371bdce551161012e578063bbf28e02116100ab578063d547741f1161006f578063d547741f14610736578063e561dddc14610756578063e5f1cb9e1461076b578063f0bd87cc1461078b578063f0c58ea7146107bf57600080fd5b8063bbf28e0214610691578063bce06947146106b1578063c3c5a547146106c6578063c4d66de8146106f6578063d50b5aa01461071657600080fd5b8063965288b0116100f2578063965288b0146105e9578063a217fddf1461060b578063aa6127e314610620578063ad3cb1cc14610640578063b25645691461067157600080fd5b806371bdce551461050b5780637e4d9469146105695780638bba2a0a1461058957806391d14854146105a9578063944f4033146105c957600080fd5b80634b68c001116101bc5780635581f372116101805780635581f3721461045e57806355c4281e1461047e57806359caecb51461049e5780635a295502146104be5780635ac44282146104de57600080fd5b80634b68c001146103bf5780634f1ef286146103df57806352d1902d146103f25780635478ad821461040757806354fd4d501461042757600080fd5b8063274fae7c11610203578063274fae7c146103125780632f2ff15d1461033257806336568abe146103525780633a371b8e14610372578063416dd31a1461039257600080fd5b80630103a6231461024057806301ffc9a714610262578063043414221461029757806310a6ec99146102b7578063248a9ca3146102f2575b600080fd5b34801561024c57600080fd5b5061026061025b366004612ae3565b6107f3565b005b34801561026e57600080fd5b5061028261027d366004612b29565b610897565b60405190151581526020015b60405180910390f35b3480156102a357600080fd5b506102606102b2366004612b53565b6108ce565b3480156102c357600080fd5b506102e46102d2366004612beb565b60366020526000908152604090205481565b60405190815260200161028e565b3480156102fe57600080fd5b506102e461030d366004612c06565b610a14565b34801561031e57600080fd5b5061026061032d366004612c06565b610a36565b34801561033e57600080fd5b5061026061034d366004612c1f565b610c16565b34801561035e57600080fd5b5061026061036d366004612c1f565b610c38565b34801561037e57600080fd5b5061026061038d366004612c1f565b610c6b565b34801561039e57600080fd5b506103b26103ad366004612beb565b610e53565b60405161028e9190612c4b565b3480156103cb57600080fd5b506102e46103da366004612ae3565b610ebf565b6102606103ed366004612c8e565b61102b565b3480156103fe57600080fd5b506102e461104a565b34801561041357600080fd5b506102e4610422366004612ce5565b611067565b34801561043357600080fd5b506040805180820190915260058152640322e302e360dc1b60208201525b60405161028e9190612d6b565b34801561046a57600080fd5b50610282610479366004612d7e565b6113a2565b34801561048a57600080fd5b50610260610499366004612beb565b6113e8565b3480156104aa57600080fd5b506102606104b9366004612c06565b61140b565b3480156104ca57600080fd5b506102606104d9366004612d7e565b611522565b3480156104ea57600080fd5b506104fe6104f9366004612c06565b6115db565b60405161028e9190612de0565b34801561051757600080fd5b50610552610526366004612beb565b6001600160a01b031660009081526037602090815260408083205460369092529091205460ff90911691565b60408051921515835260208301919091520161028e565b34801561057557600080fd5b50610260610584366004612beb565b6117b0565b34801561059557600080fd5b506102606105a4366004612beb565b6117e5565b3480156105b557600080fd5b506102826105c4366004612c1f565b61181a565b3480156105d557600080fd5b506102606105e4366004612e99565b611852565b3480156105f557600080fd5b506102e460008051602061358c83398151915281565b34801561061757600080fd5b506102e4600081565b34801561062c57600080fd5b506102e461063b366004612f17565b6119c2565b34801561064c57600080fd5b50610451604051806040016040528060058152602001640352e302e360dc1b81525081565b34801561067d57600080fd5b5061028261068c366004612c06565b611d6d565b34801561069d57600080fd5b506102e46106ac366004612fea565b611e05565b3480156106bd57600080fd5b506103b2611e9a565b3480156106d257600080fd5b506102826106e1366004612beb565b60376020526000908152604090205460ff1681565b34801561070257600080fd5b50610260610711366004612beb565b611ef2565b34801561072257600080fd5b50610260610731366004612fea565b61200c565b34801561074257600080fd5b50610260610751366004612c1f565b612174565b34801561076257600080fd5b506002546102e4565b34801561077757600080fd5b506102e461078636600461305a565b612190565b34801561079757600080fd5b506102e47ffbd454f36a7e1a388bd6fc3ab10d434aa4578f811acbbcf33afb1c697486313c81565b3480156107cb57600080fd5b506102e47f2f3a5455f35aeca177ac653592f277fbe2fbafef01081a2030451bb2fb41c91d81565b805160000361081557604051636e6db68160e11b815260040160405180910390fd5b6000610820836115db565b60808101519091506001600160a01b031633146108505760405163b72bcb2f60e01b815260040160405180910390fd5b336001600160a01b0316837fe8b80c90cb38fdf4122b4d1a7ce7a994b6529a890607c4842849e7f5110dd9b78460405161088a9190612d6b565b60405180910390a3505050565b60006001600160e01b03198216637965db0b60e01b14806108c857506301ffc9a760e01b6001600160e01b03198316145b92915050565b6000838152600160205260408120548491036108fd57604051632785786f60e21b815260040160405180910390fd5b600084815260016020526040902060058101546001600160a01b03163314801590610930575061092e60003361181a565b155b1561094d576040516282b42960e81b815260040160405180910390fd5b60036005820154600160a01b900460ff16600381111561096f5761096f612da8565b0361098d5760405163bf08bbf360e01b815260040160405180910390fd5b60058101805460ff60a01b1916600360a01b179055426008820155604051339086907f9dd55b080561b4f234404654c8464792d7a5f09b220cdd59444d8ed7a767258f906109de90889088906130a5565b60405180910390a3846000805160206135ac8339815191526003604051610a0591906130b9565b60405180910390a25050505050565b60009081526000805160206135ec833981519152602052604090206001015490565b600081815260016020526040812054829103610a6557604051632785786f60e21b815260040160405180910390fd5b816003600082815260016020526040902060050154600160a01b900460ff166003811115610a9557610a95612da8565b03610ab35760405163bf08bbf360e01b815260040160405180910390fd5b610abb612469565b6000838152600160208190526040909120906005820154600160a01b900460ff166003811115610aed57610aed612da8565b14610b0b5760405163baf3f0f760e01b815260040160405180910390fd5b60068101546001600160a01b03163314610b37576040516282b42960e81b815260040160405180910390fd5b6004810180546001600160a01b031980821633908117909355600684018054909116905560058301805460ff60a01b1916600160a11b17905542600884015560008281526003602090815260408083208054600181018255908452918320909101889055516001600160a01b039092169291839188917f0a429aba3d89849a2db0153e4534d95c46a1d83c8109d73893f55ebc44010ff49190a4846000805160206135ac8339815191526002604051610bf091906130b9565b60405180910390a25050610c11600160008051602061360c83398151915255565b505050565b610c1f82610a14565b610c28816124b5565b610c3283836124c2565b50505050565b6001600160a01b0381163314610c615760405163334bd91960e11b815260040160405180910390fd5b610c118282612567565b600082815260016020526040812054839103610c9a57604051632785786f60e21b815260040160405180910390fd5b60008381526001602052604090206004015483906001600160a01b03163314610cd65760405163b72bcb2f60e01b815260040160405180910390fd5b836003600082815260016020526040902060050154600160a01b900460ff166003811115610d0657610d06612da8565b03610d245760405163bf08bbf360e01b815260040160405180910390fd5b846001600082815260016020526040902060050154600160a01b900460ff166003811115610d5457610d54612da8565b03610d72576040516304801a4160e11b815260040160405180910390fd5b6001600160a01b0385161580610d9057506001600160a01b03851633145b15610dae576040516352a7f8fb60e01b815260040160405180910390fd5b6000868152600160205260408082206006810180546001600160a01b0319166001600160a01b038a1690811790915560058201805460ff60a01b1916600160a01b1790554260088301559151909233918a917f8ee650c032c1b70a68df94b54adbfb34be569f01a8fe0f25a25ad89d2b699f0b91a4866000805160206135ac8339815191526001604051610e4291906130b9565b60405180910390a250505050505050565b6001600160a01b038116600090815260036020908152604091829020805483518184028101840190945280845260609392830182828015610eb357602002820191906000526020600020905b815481526020019060010190808311610e9f575b50505050509050919050565b600060008051602061358c833981519152610ed9816124b5565b83600003610efa5760405163524f409b60e01b815260040160405180910390fd5b600080548180610f09836130dd565b9091555060008181526001602081905260408220838155908101919091556002810187905590915060038101610f3f868261318d565b50600481018054336001600160a01b031990911681179091556005820180546001600160a81b03191660ff60a01b1983161790554260078301819055600883015560028054600181810190925560008051602061356c83398151915201849055600082815260036020908152604080832080549485018155835291209091018490555183907f42d55efc71ff29a5dba03598254792f23970b6c957b980c6d0250a8e9476ff3a90610ff3908a908a90613245565b60405180910390a3816000805160206135ac833981519152600060405161101a91906130b9565b60405180910390a250949350505050565b6110336125e3565b61103c8261268a565b6110468282612695565b5050565b6000611054612757565b506000805160206135cc83398151915290565b6000838152600160205260408120548490820361109757604051632785786f60e21b815260040160405180910390fd5b60008581526001602052604090206004015485906001600160a01b031633146110d35760405163b72bcb2f60e01b815260040160405180910390fd5b856003600082815260016020526040902060050154600160a01b900460ff16600381111561110357611103612da8565b036111215760405163bf08bbf360e01b815260040160405180910390fd5b866001600082815260016020526040902060050154600160a01b900460ff16600381111561115157611151612da8565b0361116f576040516304801a4160e11b815260040160405180910390fd5b611177612469565b6001600160a01b038716158061119557506001600160a01b03871633145b156111b357604051632f35253160e01b815260040160405180910390fd5b6000888152600160205260408120908790036111e25760405163524f409b60e01b815260040160405180910390fd5b8681600201541015611207576040516348e126c160e11b815260040160405180910390fd5b8681600201600082825461121b919061325e565b9091555050426008820155600080548180611235836130dd565b9091555060008181526001602081905260409091208281559081018c9055600281018a905590915060038082019061126f90850182613271565b506004810180546001600160a01b0319166001600160a01b038c811691821790925560058581015490840180546001600160a81b03191691909316179091554260078301819055600883015560028054600181810190925560008051602061356c8339815191520184905560009182526003602090815260408084208054938401815584529281902090910184905590518a8152339184918e917f1b8a10c54a117691bc6b30aa896e2fed590f7e5b84efbb07d7933168a6b5609d910160405180910390a460408051838152602081018b90526001600160a01b038c169133918e917fdab37ab5276e1b47a4f0383f57ed397733f1f249906b0d9f94489ec3d13b9f38910160405180910390a450955050611397600160008051602061360c83398151915255565b505050509392505050565b6001600160a01b03821660009081526037602052604081205460ff1680156113e157506001600160a01b03831660009081526036602052604090205482145b9392505050565b60006113f3816124b5565b61104660008051602061358c83398151915283610c16565b60008181526001602052604081205482910361143a57604051632785786f60e21b815260040160405180910390fd5b60008281526001602052604090206004015482906001600160a01b031633146114765760405163b72bcb2f60e01b815260040160405180910390fd5b6000838152600160208190526040909120906005820154600160a01b900460ff1660038111156114a8576114a8612da8565b146114c65760405163baf3f0f760e01b815260040160405180910390fd5b6006810180546001600160a01b031916905560058101805460ff60a01b1916600160a11b17905542600882015560405184906000805160206135ac83398151915290611514906002906130b9565b60405180910390a250505050565b600061152d816124b5565b6001600160a01b03831660009081526037602052604090205460ff1661156657604051630745908560e41b815260040160405180910390fd5b81611584576040516391cc577360e01b815260040160405180910390fd5b6001600160a01b038316600081815260366020908152604091829020805490869055825181815291820186905292917fa772babc4abb5a8ee02d244b0439c98118f115dcfb446d4f453f2fd37769c2d19101611514565b60408051610140810182526000808252602082018190529181018290526060808201526080810182905260a0810182905260c0810182905260e08101829052610100810182905261012081019190915260008281526001602052604081205483910361165a57604051632785786f60e21b815260040160405180910390fd5b60016000848152602001908152602001600020604051806101400160405290816000820154815260200160018201548152602001600282015481526020016003820180546116a7906130f6565b80601f01602080910402602001604051908101604052809291908181526020018280546116d3906130f6565b80156117205780601f106116f557610100808354040283529160200191611720565b820191906000526020600020905b81548152906001019060200180831161170357829003601f168201915b505050918352505060048201546001600160a01b03908116602083015260058301549081166040830152606090910190600160a01b900460ff16600381111561176b5761176b612da8565b600381111561177c5761177c612da8565b815260068201546001600160a01b031660208201526007820154604082015260089091015460609091015291505b50919050565b60006117bb816124b5565b6110467f2f3a5455f35aeca177ac653592f277fbe2fbafef01081a2030451bb2fb41c91d83610c16565b60006117f0816124b5565b6110467ffbd454f36a7e1a388bd6fc3ab10d434aa4578f811acbbcf33afb1c697486313c83610c16565b60009182526000805160206135ec833981519152602090815260408084206001600160a01b0393909316845291905290205460ff1690565b600061185d816124b5565b6001600160a01b03841660009081526037602052604090205460ff16156118975760405163967dce7b60e01b815260040160405180910390fd5b816118b5576040516391cc577360e01b815260040160405180910390fd5b60008051602061358c83398151915283141580156118f357507ffbd454f36a7e1a388bd6fc3ab10d434aa4578f811acbbcf33afb1c697486313c8314155b801561191f57507f2f3a5455f35aeca177ac653592f277fbe2fbafef01081a2030451bb2fb41c91d8314155b1561193d57604051636caa20b560e11b815260040160405180910390fd5b6001600160a01b038416600090815260366020908152604080832085905560379091529020805460ff1916600117905561197783856124c2565b5082846001600160a01b03167fdc473e331fef37c15ec2c5eb73a6e9aa85e43e62e7f0119230fb5ff7c09ba0e9846040516119b491815260200190565b60405180910390a350505050565b600060008051602061358c8339815191526119dc816124b5565b8860008190036119ff5760405163521299a960e01b815260040160405180910390fd5b878114611a1f5760405163512509d360e11b815260040160405180910390fd5b858114611a3f5760405163512509d360e11b815260040160405180910390fd5b838114611a5f5760405163512509d360e11b815260040160405180910390fd5b6032811115611a8157604051630d67f41160e21b815260040160405180910390fd5b600054925060005b81811015611d18578b8b82818110611aa357611aa3613338565b90506020020135600003611aca5760405163524f409b60e01b815260040160405180910390fd5b878782818110611adc57611adc613338565b9050602002810190611aee919061334e565b9050600003611b1057604051636e6db68160e11b815260040160405180910390fd5b6000805480825260016020819052604083209182558101919091558c8c83818110611b3d57611b3d613338565b60200291909101356002830155508a8a83818110611b5d57611b5d613338565b9050602002810190611b6f919061334e565b6003830191611b7f919083613394565b50600481018054336001600160a01b031990911681179091556005820180546001600160a81b03191660ff60a01b198316179055426007830181905560088301556000805460028054600181810190925560008051602061356c83398151915201829055838352600360209081526040842080549283018155845283200155547f42d55efc71ff29a5dba03598254792f23970b6c957b980c6d0250a8e9476ff3a8f8f86818110611c3257611c32613338565b905060200201358e8e87818110611c4b57611c4b613338565b9050602002810190611c5d919061334e565b604051611c6c9392919061344d565b60405180910390a36000546000805160206135ac8339815191526000604051611c9591906130b9565b60405180910390a260005433907fe8b80c90cb38fdf4122b4d1a7ce7a994b6529a890607c4842849e7f5110dd9b78b8b86818110611cd557611cd5613338565b9050602002810190611ce7919061334e565b604051611cf59291906130a5565b60405180910390a36000808154611d0b906130dd565b9091555050600101611a89565b50336001600160a01b0316837fcc6cd9e66084e806fc5af1d4ce0acaea132a85783eb03815cc7a0f5929fb99e9838888604051611d5793929190613467565b60405180910390a3505098975050505050505050565b60008181526001602052604081205482908203611d9d57604051632785786f60e21b815260040160405180910390fd5b6000838152600160208190526040909120906005820154600160a01b900460ff166003811115611dcf57611dcf612da8565b14158015611dfd575060036005820154600160a01b900460ff166003811115611dfa57611dfa612da8565b14155b949350505050565b600060008051602061358c833981519152611e1f816124b5565b8251600003611e4157604051636e6db68160e11b815260040160405180910390fd5b6000611e4d8686610ebf565b9050336001600160a01b0316817fe8b80c90cb38fdf4122b4d1a7ce7a994b6529a890607c4842849e7f5110dd9b786604051611e899190612d6b565b60405180910390a395945050505050565b60606002805480602002602001604051908101604052809291908181526020018280548015611ee857602002820191906000526020600020905b815481526020019060010190808311611ed4575b5050505050905090565b6000611efc6127a0565b805490915060ff600160401b82041615906001600160401b0316600081158015611f235750825b90506000826001600160401b03166001148015611f3f5750303b155b905081158015611f4d575080155b15611f6b5760405163f92ee8a960e01b815260040160405180910390fd5b845467ffffffffffffffff191660011785558315611f9557845460ff60401b1916600160401b1785555b611f9d6127c9565b611fa56127c9565b611fad6127d1565b611fb86000876124c2565b506001600055831561200457845460ff60401b19168555604051600181527fc7f505b2f371ae2175ee4913f4499e1f2633a7b5936321eed1cdaeb6115181d29060200160405180910390a15b505050505050565b60008381526001602052604081205484910361203b57604051632785786f60e21b815260040160405180910390fd5b60008481526001602052604090206004015484906001600160a01b031633146120775760405163b72bcb2f60e01b815260040160405180910390fd5b846003600082815260016020526040902060050154600160a01b900460ff1660038111156120a7576120a7612da8565b036120c55760405163bf08bbf360e01b815260040160405180910390fd5b856001600082815260016020526040902060050154600160a01b900460ff1660038111156120f5576120f5612da8565b03612113576040516304801a4160e11b815260040160405180910390fd5b336001600160a01b0316877f3e689ff88c84888294d5fed063d677af7d5f7224c361b335f0c1a67e53a584d3888860405161214f929190613511565b60405180910390a3505050600093845250506001602052506040902042600890910155565b61217d82610a14565b612186816124b5565b610c328383612567565b600082815260016020526040812054839082036121c057604051632785786f60e21b815260040160405180910390fd5b60008481526001602052604090206004015484906001600160a01b031633146121fc5760405163b72bcb2f60e01b815260040160405180910390fd5b846003600082815260016020526040902060050154600160a01b900460ff16600381111561222c5761222c612da8565b0361224a5760405163bf08bbf360e01b815260040160405180910390fd5b856001600082815260016020526040902060050154600160a01b900460ff16600381111561227a5761227a612da8565b03612298576040516304801a4160e11b815260040160405180910390fd5b6122a0612469565b6000878152600160205260408120908790036122cf5760405163524f409b60e01b815260040160405180910390fd5b86816002015410156122f4576040516348e126c160e11b815260040160405180910390fd5b86816002016000828254612308919061325e565b9091555050426008820155600080548180612322836130dd565b9091555060008181526001602081905260409091208281559081018b9055600281018a905590915060038082019061235c90850182613271565b506004810180546001600160a01b0319163390811790915560058481015490830180546001600160a81b0319166001600160a01b039092169190911790554260078301819055600883015560028054600181810190925560008051602061356c83398151915201849055600082815260036020908152604080832080549485018155835291819020909201859055518b815284918d917f1b8a10c54a117691bc6b30aa896e2fed590f7e5b84efbb07d7933168a6b5609d910160405180910390a4816000805160206135ac833981519152600060405161243c91906130b9565b60405180910390a25095505061245f600160008051602061360c83398151915255565b5050505092915050565b60008051602061360c83398151915280546001190161249b57604051633ee5aeb560e01b815260040160405180910390fd5b60029055565b600160008051602061360c83398151915255565b6124bf81336127e1565b50565b60006000805160206135ec8339815191526124dd848461181a565b61255d576000848152602082815260408083206001600160a01b03871684529091529020805460ff191660011790556125133390565b6001600160a01b0316836001600160a01b0316857f2f8788117e7eff1d82e926ec794901d17c78024a50270940304540a733656f0d60405160405180910390a460019150506108c8565b60009150506108c8565b60006000805160206135ec833981519152612582848461181a565b1561255d576000848152602082815260408083206001600160a01b0387168085529252808320805460ff1916905551339287917ff6391f5c32d9c69d2a47ea670b442974b53935d1edc7fd64eb21e047a839171b9190a460019150506108c8565b306001600160a01b037f000000000000000000000000000000000000000000000000000000000000000016148061266a57507f00000000000000000000000000000000000000000000000000000000000000006001600160a01b031661265e6000805160206135cc833981519152546001600160a01b031690565b6001600160a01b031614155b156126885760405163703e46dd60e11b815260040160405180910390fd5b565b6000611046816124b5565b816001600160a01b03166352d1902d6040518163ffffffff1660e01b8152600401602060405180830381865afa9250505080156126ef575060408051601f3d908101601f191682019092526126ec91810190613536565b60015b61271c57604051634c9c8ce360e01b81526001600160a01b03831660048201526024015b60405180910390fd5b6000805160206135cc833981519152811461274d57604051632a87526960e21b815260048101829052602401612713565b610c11838361281a565b306001600160a01b037f000000000000000000000000000000000000000000000000000000000000000016146126885760405163703e46dd60e11b815260040160405180910390fd5b6000807ff0c57e16840df040f15088dc2f81fe391c3923bec73e23a9662efc9c229c6a006108c8565b612688612870565b6127d9612870565b612688612895565b6127eb828261181a565b6110465760405163e2517d3f60e01b81526001600160a01b038216600482015260248101839052604401612713565b6128238261289d565b6040516001600160a01b038316907fbc7cd75a20ee27fd9adebab32041f755214dbc6bffa90cc0225b39da2e5c2d3b90600090a280511561286857610c118282612902565b611046612978565b612878612997565b61268857604051631afcd79f60e31b815260040160405180910390fd5b6124a1612870565b806001600160a01b03163b6000036128d357604051634c9c8ce360e01b81526001600160a01b0382166004820152602401612713565b6000805160206135cc83398151915280546001600160a01b0319166001600160a01b0392909216919091179055565b6060600080846001600160a01b03168460405161291f919061354f565b600060405180830381855af49150503d806000811461295a576040519150601f19603f3d011682016040523d82523d6000602084013e61295f565b606091505b509150915061296f8583836129b1565b95945050505050565b34156126885760405163b398979f60e01b815260040160405180910390fd5b60006129a16127a0565b54600160401b900460ff16919050565b6060826129c6576129c182612a0d565b6113e1565b81511580156129dd57506001600160a01b0384163b155b15612a0657604051639996b31560e01b81526001600160a01b0385166004820152602401612713565b5092915050565b805115612a1c57805160208201fd5b60405163d6bda27560e01b815260040160405180910390fd5b634e487b7160e01b600052604160045260246000fd5b6000806001600160401b03841115612a6557612a65612a35565b50604051601f19601f85018116603f011681018181106001600160401b0382111715612a9357612a93612a35565b604052838152905080828401851015612aab57600080fd5b83836020830137600060208583010152509392505050565b600082601f830112612ad457600080fd5b6113e183833560208501612a4b565b60008060408385031215612af657600080fd5b8235915060208301356001600160401b03811115612b1357600080fd5b612b1f85828601612ac3565b9150509250929050565b600060208284031215612b3b57600080fd5b81356001600160e01b0319811681146113e157600080fd5b600080600060408486031215612b6857600080fd5b8335925060208401356001600160401b03811115612b8557600080fd5b8401601f81018613612b9657600080fd5b80356001600160401b03811115612bac57600080fd5b866020828401011115612bbe57600080fd5b939660209190910195509293505050565b80356001600160a01b0381168114612be657600080fd5b919050565b600060208284031215612bfd57600080fd5b6113e182612bcf565b600060208284031215612c1857600080fd5b5035919050565b60008060408385031215612c3257600080fd5b82359150612c4260208401612bcf565b90509250929050565b602080825282518282018190526000918401906040840190835b81811015612c83578351835260209384019390920191600101612c65565b509095945050505050565b60008060408385031215612ca157600080fd5b612caa83612bcf565b915060208301356001600160401b03811115612cc557600080fd5b8301601f81018513612cd657600080fd5b612b1f85823560208401612a4b565b600080600060608486031215612cfa57600080fd5b83359250612d0a60208501612bcf565b929592945050506040919091013590565b60005b83811015612d36578181015183820152602001612d1e565b50506000910152565b60008151808452612d57816020860160208601612d1b565b601f01601f19169290920160200192915050565b6020815260006113e16020830184612d3f565b60008060408385031215612d9157600080fd5b612d9a83612bcf565b946020939093013593505050565b634e487b7160e01b600052602160045260246000fd5b60048110612ddc57634e487b7160e01b600052602160045260246000fd5b9052565b60208152815160208201526020820151604082015260408201516060820152600060608301516101406080840152612e1c610160840182612d3f565b90506080840151612e3860a08501826001600160a01b03169052565b5060a08401516001600160a01b03811660c08501525060c0840151612e6060e0850182612dbe565b5060e08401516001600160a01b038116610100850152506101008401516101208401526101208401516101408401528091505092915050565b600080600060608486031215612eae57600080fd5b612eb784612bcf565b95602085013595506040909401359392505050565b60008083601f840112612ede57600080fd5b5081356001600160401b03811115612ef557600080fd5b6020830191508360208260051b8501011115612f1057600080fd5b9250929050565b6000806000806000806000806080898b031215612f3357600080fd5b88356001600160401b03811115612f4957600080fd5b612f558b828c01612ecc565b90995097505060208901356001600160401b03811115612f7457600080fd5b612f808b828c01612ecc565b90975095505060408901356001600160401b03811115612f9f57600080fd5b612fab8b828c01612ecc565b90955093505060608901356001600160401b03811115612fca57600080fd5b612fd68b828c01612ecc565b999c989b5096995094979396929594505050565b600080600060608486031215612fff57600080fd5b8335925060208401356001600160401b0381111561301c57600080fd5b61302886828701612ac3565b92505060408401356001600160401b0381111561304457600080fd5b61305086828701612ac3565b9150509250925092565b6000806040838503121561306d57600080fd5b50508035926020909101359150565b81835281816020850137506000828201602090810191909152601f909101601f19169091010190565b602081526000611dfd60208301848661307c565b602081016108c88284612dbe565b634e487b7160e01b600052601160045260246000fd5b6000600182016130ef576130ef6130c7565b5060010190565b600181811c9082168061310a57607f821691505b6020821081036117aa57634e487b7160e01b600052602260045260246000fd5b601f821115610c1157806000526020600020601f840160051c810160208510156131515750805b601f840160051c820191505b81811015613171576000815560010161315d565b5050505050565b600019600383901b1c191660019190911b1790565b81516001600160401b038111156131a6576131a6612a35565b6131ba816131b484546130f6565b8461312a565b6020601f8211600181146131e857600083156131d65750848201515b6131e08482613178565b855550613171565b600084815260208120601f198516915b8281101561321857878501518255602094850194600190920191016131f8565b50848210156132365786840151600019600387901b60f8161c191681555b50505050600190811b01905550565b828152604060208201526000611dfd6040830184612d3f565b818103818111156108c8576108c86130c7565b81810361327c575050565b61328682546130f6565b6001600160401b0381111561329d5761329d612a35565b6132ab816131b484546130f6565b6000601f8211600181146132d057600083156131d65750848201546131e08482613178565b600085815260209020601f19841690600086815260209020845b8381101561330a57828601548255600195860195909101906020016132ea565b50858310156133285781850154600019600388901b60f8161c191681555b5050505050600190811b01905550565b634e487b7160e01b600052603260045260246000fd5b6000808335601e1984360301811261336557600080fd5b8301803591506001600160401b0382111561337f57600080fd5b602001915036819003821315612f1057600080fd5b6001600160401b038311156133ab576133ab612a35565b6133bf836133b983546130f6565b8361312a565b6000601f8411600181146133ed57600085156133db5750838201355b6133e58682613178565b845550613171565b600083815260209020601f19861690835b8281101561341e57868501358255602094850194600190920191016133fe565b508682101561343b5760001960f88860031b161c19848701351681555b505060018560011b0183555050505050565b83815260406020820152600061296f60408301848661307c565b838152604060208201819052810182905260006060600584901b830181019083018583601e1936839003015b8782101561350357868503605f1901845282358181126134b257600080fd5b89016020810190356001600160401b038111156134ce57600080fd5b8036038213156134dd57600080fd5b6134e887828461307c565b96505050602083019250602084019350600182019150613493565b509298975050505050505050565b6040815260006135246040830185612d3f565b828103602084015261296f8185612d3f565b60006020828403121561354857600080fd5b5051919050565b60008251613561818460208701612d1b565b919091019291505056fe405787fa12a823e0f2b7631cc41b3ba8828b3321ca811111fa75cd3aa3bb5aceeefb95e842a3287179d933b4460be539a1d5af11aa8b325bb45c5c8dc92de4edd486302b9905c799946ddddece7405125187fa786dbcfd92040f328b6bc84b55360894a13ba1a3210667c828492db98dca3e2076cc3735a920a3ca505d382bbc02dd7bc7dec4dceedda775e58dd541e08a116c6c53815c0bd028192f7b6268009b779b17422d0df92223018b32b4d1fa46e071723d6817e2486d003becc55f00a2646970667358221220e2482315842692aeea9d79452f7ce69de7f67fcc5f1519d8d014cdeffddcc87d64736f6c634300081c0033",
  "linkReferences": {},
  "deployedLinkReferences": {}
}