{
  "_format": "hh-sol-artifact-1",
  "contractName": "PharmaChainV2",
  "sourceName": "contracts/PharmaChainV2.sol",
  "abi": [
    {
      "inputs": [],
      "name": "AccessControlBadConfirmation",
      "type": "error"
    },
    {
      "inputs": [
        {
          "internalType": "address",
          "name": "account",
          "type": "address"
        },
        {
          "internalType": "bytes32",
          "name": "neededRole",
          "type": "bytes32"
        }
      ],
      "name": "AccessControlUnauthorizedAccount",
      "type": "error"
    },
    {
      "inputs": [
        {
          "internalType": "address",
          "name": "target",
          "type": "address"
        }
      ],
      "name": "AddressEmptyCode",
      "type": "error"
    },
    {
      "inputs": [],
      "name": "ArrayLengthMismatch",
      "type": "error"
    },
    {
      "inputs": [],
      "name": "BatchAlreadyRecalled",
      "type": "error"
    },
    {
      "inputs": [],
      "name": "BatchLimitExceeded",
      "type": "error"
    },
    {
      "inputs": [],
      "name": "BatchLocked",
      "type": "error"
    },
    {
      "inputs": [],
      "name": "BatchNotFound",
      "type": "error"
    },
    {
      "inputs": [
        {
          "internalType": "address",
          "name": "implementation",
          "type": "address"
        }
      ],
      "name": "ERC1967InvalidImplementation",
      "type": "error"
    },
    {
      "inputs": [],
      "name": "ERC1967NonPayable",
      "type": "error"
    },
    {
      "inputs": [],
      "name": "EmptyArray",
      "type": "error"
    },
    {
      "inputs": [],
      "name": "FailedCall",
      "type": "error"
    },
    {
      "inputs": [],
      "name": "InsufficientQuantity",
      "type": "error"
    },
    {
      "inputs": [],
      "name": "InvalidBatchId",
      "type": "error"
    },
    {
      "inputs": [],
      "name": "InvalidIPFSHash",
      "type": "error"
    },
    {
      "inputs": [],
      "name": "InvalidIdentityHash",
      "type": "error"
    },
    {
      "inputs": [],
      "name": "InvalidInitialization",
      "type": "error"
    },
    {
      "inputs": [],
      "name": "InvalidQuantity",
      "type": "error"
    },
    {
      "inputs": [],
      "name": "InvalidRole",
      "type": "error"
    },
    {
      "inputs": [],
      "name": "InvalidState",
      "type": "error"
    },
    {
      "inputs": [],
      "name": "InvalidTransfer",
      "type": "error"
    },
    {
      "inputs": [],
      "name": "NotBatchOwner",
      "type": "error"
    },
    {
      "inputs": [],
      "name": "NotInitializing",
      "type": "error"
    },
    {
      "inputs": [],
      "name": "ParticipantAlreadyRegistered",
      "type": "error"
    },
    {
      "inputs": [],
      "name": "ParticipantNotRegistered",
      "type": "error"
    },
    {
      "inputs": [],
      "name": "ReentrancyGuardReentrantCall",
      "type": "error"
    },
    {
      "inputs": [],
      "name": "SelfTransferNotAllowed",
      "type": "error"
    },
    {
      "inputs": [],
      "name": "UUPSUnauthorizedCallContext",
      "type": "error"
    },
    {
      "inputs": [
        {
          "internalType": "bytes32",
          "name": "slot",
          "type": "bytes32"
        }
      ],
      "name": "UUPSUnsupportedProxiableUUID",
      "type": "error"
    },
    {
      "inputs": [],
      "name": "Unauthorized",
      "type": "error"
    },
    {
      "anonymous": false,
      "inputs": [
        {
          "indexed": true,
          "internalType": "uint256",
          "name": "batchId",
          "type": "uint256"
        },
        {
          "indexed": true,
          "internalType": "address",
          "name": "manufacturer",
          "type": "address"
        },
        {
          "indexed": false,
          "internalType": "uint256",
          "name": "quantity",
          "type": "uint256"
        },
        {
          "indexed": false,
          "internalType": "string",
          "name": "unit",
          "type": "string"
        }
      ],
      "name": "BatchCreated",
      "type": "event"
    },
    {
      "anonymous": false,
      "inputs": [
        {
          "indexed": true,
          "internalType": "uint256",
          "name": "batchId",
          "type": "uint256"
        },
        {
          "indexed": true,
          "internalType": "address",
          "name": "recalledBy",
          "type": "address"
        },
        {
          "indexed": false,
          "internalType": "string",
          "name": "reason",
          "type": "string"
        }
      ],
      "name": "BatchRecalled",
      "type": "event"
    },
    {
      "anonymous": false,
      "inputs": [
        {
          "indexed": true,
          "internalType": "uint256",
          "name": "parentBatchId",
          "type": "uint256"
        },
        {
          "indexed": true,
          "internalType": "uint256",
          "name": "childBatchId",
          "type": "uint256"
        },
        {
          "indexed": false,
          "internalType": "uint256",
          "name": "amount",
          "type": "uint256"
        },
        {
          "indexed": true,
          "internalType": "address",
          "name": "owner",
          "type": "address"
        }
      ],
      "name": "BatchSplit",
      "type": "event"
    },
    {
      "anonymous": false,
      "inputs": [
        {
          "indexed": true,
          "internalType": "uint256",
          "name": "firstBatchId",
          "type": "uint256"
        },
        {
          "indexed": false,
          "internalType": "uint256",
          "name": "count",
          "type": "uint256"
        },
        {
          "indexed": true,
          "internalType": "address",
          "name": "manufacturer",
          "type": "address"
        },
        {
          "indexed": false,
          "internalType": "string[]",
          "name": "manufacturerBatchNumbers",
          "type": "string[]"
        }
      ],
      "name": "BulkBatchCreated",
      "type": "event"
    },
    {
      "anonymous": false,
      "inputs": [
        {
          "indexed": true,
          "internalType": "address",
          "name": "participant",
          "type": "address"
        },
        {
          "indexed": false,
          "internalType": "bytes32",
          "name": "oldHash",
          "type": "bytes32"
        },
        {
          "indexed": false,
          "internalType": "bytes32",
          "name": "newHash",
          "type": "bytes32"
        }
      ],
      "name": "IdentityHashUpdated",
      "type": "event"
    },
    {
      "anonymous": false,
      "inputs": [
        {
          "indexed": false,
          "internalType": "uint64",
          "name": "version",
          "type": "uint64"
        }
      ],
      "name": "Initialized",
      "type": "event"
    },
    {
      "anonymous": false,
      "inputs": [
        {
          "indexed": true,
          "internalType": "uint256",
          "name": "batchId",
          "type": "uint256"
        },
        {
          "indexed": false,
          "internalType": "string",
          "name": "ipfsHash",
          "type": "string"
        },
        {
          "indexed": false,
          "internalType": "string",
          "name": "docType",
          "type": "string"
        },
        {
          "indexed": true,
          "internalType": "address",
          "name": "addedBy",
          "type": "address"
        }
      ],
      "name": "MetadataAdded",
      "type": "event"
    },
    {
      "anonymous": false,
      "inputs": [
        {
          "indexed": true,
          "internalType": "uint256",
          "name": "batchId",
          "type": "uint256"
        },
        {
          "indexed": false,
          "internalType": "string",
          "name": "ipfsHash",
          "type": "string"
        },
        {
          "indexed": true,
          "internalType": "address",
          "name": "addedBy",
          "type": "address"
        }
      ],
      "name": "MetadataAdded",
      "type": "event"
    },
    {
      "anonymous": false,
      "inputs": [
        {
          "indexed": true,
          "internalType": "address",
          "name": "participant",
          "type": "address"
        },
        {
          "indexed": true,
          "internalType": "bytes32",
          "name": "role",
          "type": "bytes32"
        },
        {
          "indexed": false,
          "internalType": "bytes32",
          "name": "identityHash",
          "type": "bytes32"
        }
      ],
      "name": "ParticipantRegistered",
      "type": "event"
    },
    {
      "anonymous": false,
      "inputs": [
        {
          "indexed": true,
          "internalType": "bytes32",
          "name": "role",
          "type": "bytes32"
        },
        {
          "indexed": true,
          "internalType": "bytes32",
          "name": "previousAdminRole",
          "type": "bytes32"
        },
        {
          "indexed": true,
          "internalType": "bytes32",
          "name": "newAdminRole",
          "type": "bytes32"
        }
      ],
      "name": "RoleAdminChanged",
      "type": "event"
    },
    {
      "anonymous": false,
      "inputs": [
        {
          "indexed": true,
          "internalType": "bytes32",
          "name": "role",
          "type": "bytes32"
        },
        {
          "indexed": true,
          "internalType": "address",
          "name": "account",
          "type": "address"
        },
        {
          "indexed": true,
          "internalType": "address",
          "name": "sender",
          "type": "address"
        }
      ],
      "name": "RoleGranted",
      "type": "event"
    },
    {
      "anonymous": false,
      "inputs": [
        {
          "indexed": true,
          "internalType": "bytes32",
          "name": "role",
          "type": "bytes32"
        },
        {
          "indexed": true,
          "internalType": "address",
          "name": "account",
          "type": "address"
        },
        {
          "indexed": true,
          "internalType": "address",
          "name": "sender",
          "type": "address"
        }
      ],
      "name": "RoleRevoked",
      "type": "event"
    },
    {
      "anonymous": false,
      "inputs": [
        {
          "indexed": true,
          "internalType": "uint256",
          "name": "batchId",
          "type": "uint256"
        },
        {
          "indexed": false,
          "internalType": "enum PharmaChain.Status",
          "name": "status",
          "type": "uint8"
        }
      ],
      "name": "StatusUpdate",
      "type": "event"
    },
    {
      "anonymous": false,
      "inputs": [
        {
          "indexed": true,
          "internalType": "uint256",
          "name": "batchId",
          "type": "uint256"
        },
        {
          "indexed": true,
          "internalType": "address",
          "name": "from",
          "type": "address"
        },
        {
          "indexed": true,
          "internalType": "address",
          "name": "to",
          "type": "address"
        }
      ],
      "name": "Transfer",
      "type": "event"
    },
    {
      "anonymous": false,
      "inputs": [
        {
          "indexed": true,
          "internalType": "uint256",
          "name": "batchId",
          "type": "uint256"
        },
        {
          "indexed": true,
          "internalType": "address",
          "name": "from",
          "type": "address"
        },
        {
          "indexed": true,
          "internalType": "address",
          "name": "to",
          "type": "address"
        }
      ],
      "name": "TransferInitiated",
      "type": "event"
    },
    {
      "anonymous": false,
      "inputs": [
        {
          "indexed": true,
          "internalType": "address",
          "name": "implementation",
          "type": "address"
        }
      ],
      "name": "Upgraded",
      "type": "event"
    },
    {
      "inputs": [],
      "name": "DEFAULT_ADMIN_ROLE",
      "outputs": [
        {
          "internalType": "bytes32",
          "name": "",
          "type": "bytes32"
        }
      ],
      "stateMutability": "view",
      "type": "function"
    },
    {
      "inputs": [],
      "name": "DISTRIBUTOR_ROLE",
      "outputs": [
        {
          "internalType": "bytes32",
          "name": "",
          "type": "bytes32"
        }
      ],
      "stateMutability": "view",
      "type": "function"
    },
    {
      "inputs": [],
      "name": "MANUFACTURER_ROLE",
      "outputs": [
        {
          "internalType": "bytes32",
          "name": "",
          "type": "bytes32"
        }
      ],
      "stateMutability": "view",
      "type": "function"
    },
    {
      "inputs": [],
      "name": "PHARMACY_ROLE",
      "outputs": [
        {
          "internalType": "bytes32",
          "name": "",
          "type": "bytes32"
        }
      ],
      "stateMutability": "view",
      "type": "function"
    },
    {
      "inputs": [],
      "name": "UPGRADE_INTERFACE_VERSION",
      "outputs": [
        {
          "internalType": "string",
          "name": "",
          "type": "string"
        }
      ],
      "stateMutability": "view",
      "type": "function"
    },
    {
      "inputs": [
        {
          "internalType": "uint256",
          "name": "batchId",
          "type": "uint256"
        }
      ],
      "name": "acceptTransfer",
      "outputs": [],
      "stateMutability": "nonpayable",
      "type": "function"
    },
    {
      "inputs": [
        {
          "internalType": "uint256",
          "name": "batchId",
          "type": "uint256"
        },
        {
          "internalType": "string",
          "name": "ipfsMetadataHash",
          "type": "string"
        }
      ],
      "name": "addMetadata",
      "outputs": [],
      "stateMutability": "nonpayable",
      "type": "function"
    },
    {
      "inputs": [
        {
          "internalType": "uint256",
          "name": "batchId",
          "type": "uint256"
        },
        {
          "internalType": "string",
          "name": "ipfsHash",
          "type": "string"
        },
        {
          "internalType": "string",
          "name": "docType",
          "type": "string"
        }
      ],
      "name": "addMetadata",
      "outputs": [],
      "stateMutability": "nonpayable",
      "type": "function"
    },
    {
      "inputs": [
        {
          "internalType": "uint256",
          "name": "batchId",
          "type": "uint256"
        }
      ],
      "name": "cancelTransfer",
      "outputs": [],
      "stateMutability": "nonpayable",
      "type": "function"
    },
    {
      "inputs": [
        {
          "internalType": "uint256",
          "name": "quantity",
          "type": "uint256"
        },
        {
          "internalType": "string",
          "name": "unit",
          "type": "string"
        }
      ],
      "name": "createBatch",
      "outputs": [
        {
          "internalType": "uint256",
          "name": "",
          "type": "uint256"
        }
      ],
      "stateMutability": "nonpayable",
      "type": "function"
    },
    {
      "inputs": [
        {
          "internalType": "uint256",
          "name": "quantity",
          "type": "uint256"
        },
        {
          "internalType": "string",
          "name": "unit",
          "type": "string"
        },
        {
          "internalType": "string",
          "name": "ipfsMetadataHash",
          "type": "string"
        }
      ],
      "name": "createBatchWithMetadata",
      "outputs": [
        {
          "internalType": "uint256",
          "name": "",
          "type": "uint256"
        }
      ],
      "stateMutability": "nonpayable",
      "type": "function"
    },
    {
      "inputs": [
        {
          "internalType": "uint256[]",
          "name": "quantities",
          "type": "uint256[]"
        },
        {
          "internalType": "string[]",
          "name": "units",
          "type": "string[]"
        },
        {
          "internalType": "string[]",
          "name": "ipfsHashes",
          "type": "string[]"
        },
        {
          "internalType": "string[]",
          "name": "manufacturerBatchNumbers",
          "type": "string[]"
        }
      ],
      "name": "createBatchesBulk",
      "outputs": [
        {
          "internalType": "uint256",
          "name": "firstBatchId",
          "type": "uint256"
        }
      ],
      "stateMutability": "nonpayable",
      "type": "function"
    },
    {
      "inputs": [],
      "name": "getAllBatchIds",
      "outputs": [
        {
          "internalType": "uint256[]",
          "name": "",
          "type": "uint256[]"
        }
      ],
      "stateMutability": "view",
      "type": "function"
    },
    {
      "inputs": [
        {
          "internalType": "uint256",
          "name": "batchId",
          "type": "uint256"
        }
      ],
      "name": "getBatch",
      "outputs": [
        {
          "components": [
            {
              "internalType": "uint256",
              "name": "id",
              "type": "uint256"
            },
            {
              "internalType": "uint256",
              "name": "parentBatchId",
              "type": "uint256"
            },
            {
              "internalType": "uint256",
              "name": "quantity",
              "type": "uint256"
            },
            {
              "internalType": "string",
              "name": "unit",
              "type": "string"
            },
            {
              "internalType": "address",
              "name": "currentOwner",
              "type": "address"
            },
            {
              "internalType": "address",
              "name": "manufacturer",
              "type": "address"
            },
            {
              "internalType": "enum PharmaChain.Status",
              "name": "status",
              "type": "uint8"
            },
            {
              "internalType": "address",
              "name": "pendingRecipient",
              "type": "address"
            },
            {
              "internalType": "uint256",
              "name": "createdAt",
              "type": "uint256"
            },
            {
              "internalType": "uint256",
              "name": "lastUpdated",
              "type": "uint256"
            }
          ],
          "internalType": "struct PharmaChain.Batch",
          "name": "",
          "type": "tuple"
        }
      ],
      "stateMutability": "view",
      "type": "function"
    },
    {
      "inputs": [
        {
          "internalType": "address",
          "name": "owner",
          "type": "address"
        }
      ],
      "name": "getBatchesByOwner",
      "outputs": [
        {
          "internalType": "uint256[]",
          "name": "",
          "type": "uint256[]"
        }
      ],
      "stateMutability": "view",
      "type": "function"
    },
    {
      "inputs": [
        {
          "internalType": "address",
          "name": "participant",
          "type": "address"
        }
      ],
      "name": "getParticipantInfo",
      "outputs": [
        {
          "internalType": "bool",
          "name": "registered",
          "type": "bool"
        },
        {
          "internalType": "bytes32",
          "name": "identityHash",
          "type": "bytes32"
        }
      ],
      "stateMutability": "view",
      "type": "function"
    },
    {
      "inputs": [
        {
          "internalType": "bytes32",
          "name": "role",
          "type": "bytes32"
        }
      ],
      "name": "getRoleAdmin",
      "outputs": [
        {
          "internalType": "bytes32",
          "name": "",
          "type": "bytes32"
        }
      ],
      "stateMutability": "view",
      "type": "function"
    },
    {
      "inputs": [],
      "name": "getTotalBatches",
      "outputs": [
        {
          "internalType": "uint256",
          "name": "",
          "type": "uint256"
        }
      ],
      "stateMutability": "view",
      "type": "function"
    },
    {
      "inputs": [
        {
          "internalType": "address",
          "name": "account",
          "type": "address"
        }
      ],
      "name": "grantDistributorRole",
      "outputs": [],
      "stateMutability": "nonpayable",
      "type": "function"
    },
    {
      "inputs": [
        {
          "internalType": "address",
          "name": "account",
          "type": "address"
        }
      ],
      "name": "grantManufacturerRole",
      "outputs": [],
      "stateMutability": "nonpayable",
      "type": "function"
    },
    {
      "inputs": [
        {
          "internalType": "address",
          "name": "account",
          "type": "address"
        }
      ],
      "name": "grantPharmacyRole",
      "outputs": [],
      "stateMutability": "nonpayable",
      "type": "function"
    },
    {
      "inputs": [
        {
          "internalType": "bytes32",
          "name": "role",
          "type": "bytes32"
        },
        {
          "internalType": "address",
          "name": "account",
          "type": "address"
        }
      ],
      "name": "grantRole",
      "outputs": [],
      "stateMutability": "nonpayable",
      "type": "function"
    },
    {
      "inputs": [
        {
          "internalType": "bytes32",
          "name": "role",
          "type": "bytes32"
        },
        {
          "internalType": "address",
          "name": "account",
          "type": "address"
        }
      ],
      "name": "hasRole",
      "outputs": [
        {
          "internalType": "bool",
          "name": "",
          "type": "bool"
        }
      ],
      "stateMutability": "view",
      "type": "function"
    },
    {
      "inputs": [
        {
          "internalType": "address",
          "name": "",
          "type": "address"
        }
      ],
      "name": "identityHashes",
      "outputs": [
        {
          "internalType": "bytes32",
          "name": "",
          "type": "bytes32"
        }
      ],
      "stateMutability": "view",
      "type": "function"
    },
    {
      "inputs": [
        {
          "internalType": "address",
          "name": "admin",
          "type": "address"
        }
      ],
      "name": "initialize",
      "outputs": [],
      "stateMutability": "nonpayable",
      "type": "function"
    },
    {
      "inputs": [
        {
          "internalType": "uint256",
          "name": "batchId",
          "type": "uint256"
        },
        {
          "internalType": "address",
          "name": "recipient",
          "type": "address"
        }
      ],
      "name": "initiateTransfer",
      "outputs": [],
      "stateMutability": "nonpayable",
      "type": "function"
    },
    {
      "inputs": [
        {
          "internalType": "address",
          "name": "",
          "type": "address"
        }
      ],
      "name": "isRegistered",
      "outputs": [
        {
          "internalType": "bool",
          "name": "",
          "type": "bool"
        }
      ],
      "stateMutability": "view",
      "type": "function"
    },
    {
      "inputs": [
        {
          "internalType": "uint256",
          "name": "batchId",
          "type": "uint256"
        }
      ],
      "name": "isTransferable",
      "outputs": [
        {
          "internalType": "bool",
          "name": "",
          "type": "bool"
        }
      ],
      "stateMutability": "view",
      "type": "function"
    },
    {
      "inputs": [],
      "name": "proxiableUUID",
      "outputs": [
        {
          "internalType": "bytes32",
          "name": "",
          "type": "bytes32"
        }
      ],
      "stateMutability": "view",
      "type": "function"
    },
    {
      "inputs": [
        {
          "internalType": "uint256",
          "name": "batchId",
          "type": "uint256"
        },
        {
          "internalType": "string",
          "name": "reason",
          "type": "string"
        }
      ],
      "name": "recallBatch",
      "outputs": [],
      "stateMutability": "nonpayable",
      "type": "function"
    },
    {
      "inputs": [
        {
          "internalType": "address",
          "name": "user",
          "type": "address"
        },
        {
          "internalType": "bytes32",
          "name": "role",
          "type": "bytes32"
        },
        {
          "internalType": "bytes32",
          "name": "identityHash",
          "type": "bytes32"
        }
      ],
      "name": "registerParticipant",
      "outputs": [],
      "stateMutability": "nonpayable",
      "type": "function"
    },
    {
      "inputs": [
        {
          "internalType": "bytes32",
          "name": "role",
          "type": "bytes32"
        },
        {
          "internalType": "address",
          "name": "callerConfirmation",
          "type": "address"
        }
      ],
      "name": "renounceRole",
      "outputs": [],
      "stateMutability": "nonpayable",
      "type": "function"
    },
    {
      "inputs": [
        {
          "internalType": "bytes32",
          "name": "role",
          "type": "bytes32"
        },
        {
          "internalType": "address",
          "name": "account",
          "type": "address"
        }
      ],
      "name": "revokeRole",
      "outputs": [],
      "stateMutability": "nonpayable",
      "type": "function"
    },
    {
      "inputs": [
        {
          "internalType": "uint256",
          "name": "parentBatchId",
          "type": "uint256"
        },
        {
          "internalType": "uint256",
          "name": "quantity",
          "type": "uint256"
        }
      ],
      "name": "splitBatch",
      "outputs": [
        {
          "internalType": "uint256",
          "name": "",
          "type": "uint256"
        }
      ],
      "stateMutability": "nonpayable",
      "type": "function"
    },
    {
      "inputs": [
        {
          "internalType": "bytes4",
          "name": "interfaceId",
          "type": "bytes4"
        }
      ],
      "name": "supportsInterface",
      "outputs": [
        {
          "internalType": "bool",
          "name": "",
          "type": "bool"
        }
      ],
      "stateMutability": "view",
      "type": "function"
    },
    {
      "inputs": [
        {
          "internalType": "address",
          "name": "user",
          "type": "address"
        },
        {
          "internalType": "bytes32",
          "name": "newHash",
          "type": "bytes32"
        }
      ],
      "name": "updateParticipantHash",
      "outputs": [],
      "stateMutability": "nonpayable",
      "type": "function"
    },
    {
      "inputs": [
        {
          "internalType": "address",
          "name": "newImplementation",
          "type": "address"
        },
        {
          "internalType": "bytes",
          "name": "data",
          "type": "bytes"
        }
      ],
      "name": "upgradeToAndCall",
      "outputs": [],
      "stateMutability": "payable",
      "type": "function"
    },
    {
      "inputs": [
        {
          "internalType": "address",
          "name": "participant",
          "type": "address"
        },
        {
          "internalType": "bytes32",
          "name": "claimedHash",
          "type": "bytes32"
        }
      ],
      "name": "verifyIdentity",
      "outputs": [
        {
          "internalType": "bool",
          "name": "matches",
          "type": "bool"
        }
      ],
      "stateMutability": "view",
      "type": "function"
    },
    {
      "inputs": [],
      "name": "version",
      "outputs": [
        {
          "internalType": "string",
          "name": "",
          "type": "string"
        }
      ],
      "stateMutability": "pure",
      "type": "function"
    }
  ],
  "bytecode": "0x60a06040523060805234801561001457600080fd5b5061001d610022565b6100d4565b7ff0c57e16840df040f15088dc2f81fe391c3923bec73e23a9662efc9c229c6a00805468010000000000000000900460ff16156100725760405163f92ee8a960e01b815260040160405180910390fd5b80546001600160401b03908116146100d15780546001600160401b0319166001600160401b0390811782556040519081527fc7f505b2f371ae2175ee4913f4499e1f2633a7b5936321eed1cdaeb6115181d29060200160405180910390a15b50565b6080516132db6100fd600039600081816122be015281816122e7015261243201526132db6000f3fe6080604052600436106102305760003560e01c806371bdce551161012e578063bbf28e02116100ab578063d547741f1161006f578063d547741f1461070b578063e561dddc1461072b578063e5f1cb9e14610740578063f0bd87cc14610760578063f0c58ea71461079457600080fd5b8063bbf28e0214610666578063bce0694714610686578063c3c5a5471461069b578063c4d66de8146106cb578063d50b5aa0146106eb57600080fd5b8063965288b0116100f2578063965288b0146105be578063a217fddf146105e0578063aa6127e3146105f5578063ad3cb1cc14610615578063b25645691461064657600080fd5b806371bdce55146104e05780637e4d94691461053e5780638bba2a0a1461055e57806391d148541461057e578063944f40331461059e57600080fd5b8063416dd31a116101bc5780635581f372116101805780635581f3721461043357806355c4281e1461045357806359caecb5146104735780635a295502146104935780635ac44282146104b357600080fd5b8063416dd31a146103875780634b68c001146103b45780634f1ef286146103d457806352d1902d146103e757806354fd4d50146103fc57600080fd5b8063248a9ca311610203578063248a9ca3146102e7578063274fae7c146103075780632f2ff15d1461032757806336568abe146103475780633a371b8e1461036757600080fd5b80630103a6231461023557806301ffc9a714610257578063043414221461028c57806310a6ec99146102ac575b600080fd5b34801561024157600080fd5b506102556102503660046127b3565b6107c8565b005b34801561026357600080fd5b506102776102723660046127f9565b61086c565b60405190151581526020015b60405180910390f35b34801561029857600080fd5b506102556102a7366004612823565b6108a3565b3480156102b857600080fd5b506102d96102c73660046128bb565b60366020526000908152604090205481565b604051908152602001610283565b3480156102f357600080fd5b506102d96103023660046128d6565b6109e9565b34801561031357600080fd5b506102556103223660046128d6565b610a0b565b34801561033357600080fd5b506102556103423660046128ef565b610beb565b34801561035357600080fd5b506102556103623660046128ef565b610c0d565b34801561037357600080fd5b506102556103823660046128ef565b610c40565b34801561039357600080fd5b506103a76103a23660046128bb565b610e28565b604051610283919061291b565b3480156103c057600080fd5b506102d96103cf3660046127b3565b610e94565b6102556103e236600461295e565b611012565b3480156103f357600080fd5b506102d9611031565b34801561040857600080fd5b506040805180820190915260058152640322e302e360dc1b60208201525b6040516102839190612a05565b34801561043f57600080fd5b5061027761044e366004612a18565b61104e565b34801561045f57600080fd5b5061025561046e3660046128bb565b611094565b34801561047f57600080fd5b5061025561048e3660046128d6565b6110b7565b34801561049f57600080fd5b506102556104ae366004612a18565b6111ce565b3480156104bf57600080fd5b506104d36104ce3660046128d6565b611287565b6040516102839190612a7a565b3480156104ec57600080fd5b506105276104fb3660046128bb565b6001600160a01b031660009081526037602090815260408083205460369092529091205460ff90911691565b604080519215158352602083019190915201610283565b34801561054a57600080fd5b506102556105593660046128bb565b61145c565b34801561056a57600080fd5b506102556105793660046128bb565b611491565b34801561058a57600080fd5b506102776105993660046128ef565b6114c6565b3480156105aa57600080fd5b506102556105b9366004612b33565b6114fe565b3480156105ca57600080fd5b506102d960008051602061320683398151915281565b3480156105ec57600080fd5b506102d9600081565b34801561060157600080fd5b506102d9610610366004612bb1565b61166e565b34801561062157600080fd5b50610426604051806040016040528060058152602001640352e302e360dc1b81525081565b34801561065257600080fd5b506102776106613660046128d6565b611a2b565b34801561067257600080fd5b506102d9610681366004612c84565b611ac3565b34801561069257600080fd5b506103a7611b58565b3480156106a757600080fd5b506102776106b63660046128bb565b60376020526000908152604090205460ff1681565b3480156106d757600080fd5b506102556106e63660046128bb565b611bb0565b3480156106f757600080fd5b50610255610706366004612c84565b611cca565b34801561071757600080fd5b506102556107263660046128ef565b611e32565b34801561073757600080fd5b506002546102d9565b34801561074c57600080fd5b506102d961075b366004612cf4565b611e4e565b34801561076c57600080fd5b506102d97ffbd454f36a7e1a388bd6fc3ab10d434aa4578f811acbbcf33afb1c697486313c81565b3480156107a057600080fd5b506102d97f2f3a5455f35aeca177ac653592f277fbe2fbafef01081a2030451bb2fb41c91d81565b80516000036107ea57604051636e6db68160e11b815260040160405180910390fd5b60006107f583611287565b60808101519091506001600160a01b031633146108255760405163b72bcb2f60e01b815260040160405180910390fd5b336001600160a01b0316837fe8b80c90cb38fdf4122b4d1a7ce7a994b6529a890607c4842849e7f5110dd9b78460405161085f9190612a05565b60405180910390a3505050565b60006001600160e01b03198216637965db0b60e01b148061089d57506301ffc9a760e01b6001600160e01b03198316145b92915050565b6000838152600160205260408120548491036108d257604051632785786f60e21b815260040160405180910390fd5b600084815260016020526040902060058101546001600160a01b0316331480159061090557506109036000336114c6565b155b15610922576040516282b42960e81b815260040160405180910390fd5b60036005820154600160a01b900460ff16600381111561094457610944612a42565b036109625760405163bf08bbf360e01b815260040160405180910390fd5b60058101805460ff60a01b1916600360a01b179055426008820155604051339086907f9dd55b080561b4f234404654c8464792d7a5f09b220cdd59444d8ed7a767258f906109b39088908890612d3f565b60405180910390a38460008051602061322683398151915260036040516109da9190612d53565b60405180910390a25050505050565b6000908152600080516020613266833981519152602052604090206001015490565b600081815260016020526040812054829103610a3a57604051632785786f60e21b815260040160405180910390fd5b816003600082815260016020526040902060050154600160a01b900460ff166003811115610a6a57610a6a612a42565b03610a885760405163bf08bbf360e01b815260040160405180910390fd5b610a90612139565b6000838152600160208190526040909120906005820154600160a01b900460ff166003811115610ac257610ac2612a42565b14610ae05760405163baf3f0f760e01b815260040160405180910390fd5b60068101546001600160a01b03163314610b0c576040516282b42960e81b815260040160405180910390fd5b6004810180546001600160a01b031980821633908117909355600684018054909116905560058301805460ff60a01b1916600160a11b17905542600884015560008281526003602090815260408083208054600181018255908452918320909101889055516001600160a01b039092169291839188917f0a429aba3d89849a2db0153e4534d95c46a1d83c8109d73893f55ebc44010ff49190a4846000805160206132268339815191526002604051610bc59190612d53565b60405180910390a25050610be6600160008051602061328683398151915255565b505050565b610bf4826109e9565b610bfd81612185565b610c078383612192565b50505050565b6001600160a01b0381163314610c365760405163334bd91960e11b815260040160405180910390fd5b610be68282612237565b600082815260016020526040812054839103610c6f57604051632785786f60e21b815260040160405180910390fd5b60008381526001602052604090206004015483906001600160a01b03163314610cab5760405163b72bcb2f60e01b815260040160405180910390fd5b836003600082815260016020526040902060050154600160a01b900460ff166003811115610cdb57610cdb612a42565b03610cf95760405163bf08bbf360e01b815260040160405180910390fd5b846001600082815260016020526040902060050154600160a01b900460ff166003811115610d2957610d29612a42565b03610d47576040516304801a4160e11b815260040160405180910390fd5b6001600160a01b0385161580610d6557506001600160a01b03851633145b15610d83576040516352a7f8fb60e01b815260040160405180910390fd5b6000868152600160205260408082206006810180546001600160a01b0319166001600160a01b038a1690811790915560058201805460ff60a01b1916600160a01b1790554260088301559151909233918a917f8ee650c032c1b70a68df94b54adbfb34be569f01a8fe0f25a25ad89d2b699f0b91a4866000805160206132268339815191526001604051610e179190612d53565b60405180910390a250505050505050565b6001600160a01b038116600090815260036020908152604091829020805483518184028101840190945280845260609392830182828015610e8857602002820191906000526020600020905b815481526020019060010190808311610e74575b50505050509050919050565b6000600080516020613206833981519152610eae81612185565b83600003610ecf5760405163524f409b60e01b815260040160405180910390fd5b600080548180610ede83612d77565b9091555060008181526001602081905260408220838155908101919091556002810187905590915060038101610f148682612e27565b50600481018054336001600160a01b031990911681179091556005820180546001600160a81b03191660ff60a01b198316179055426007830181905560088301556002805460018181019092557f405787fa12a823e0f2b7631cc41b3ba8828b3321ca811111fa75cd3aa3bb5ace01849055600082815260036020908152604080832080549485018155835291209091018490555183907f42d55efc71ff29a5dba03598254792f23970b6c957b980c6d0250a8e9476ff3a90610fda908a908a90612edf565b60405180910390a38160008051602061322683398151915260006040516110019190612d53565b60405180910390a250949350505050565b61101a6122b3565b6110238261235a565b61102d8282612365565b5050565b600061103b612427565b5060008051602061324683398151915290565b6001600160a01b03821660009081526037602052604081205460ff16801561108d57506001600160a01b03831660009081526036602052604090205482145b9392505050565b600061109f81612185565b61102d60008051602061320683398151915283610beb565b6000818152600160205260408120548291036110e657604051632785786f60e21b815260040160405180910390fd5b60008281526001602052604090206004015482906001600160a01b031633146111225760405163b72bcb2f60e01b815260040160405180910390fd5b6000838152600160208190526040909120906005820154600160a01b900460ff16600381111561115457611154612a42565b146111725760405163baf3f0f760e01b815260040160405180910390fd5b6006810180546001600160a01b031916905560058101805460ff60a01b1916600160a11b1790554260088201556040518490600080516020613226833981519152906111c090600290612d53565b60405180910390a250505050565b60006111d981612185565b6001600160a01b03831660009081526037602052604090205460ff1661121257604051630745908560e41b815260040160405180910390fd5b81611230576040516391cc577360e01b815260040160405180910390fd5b6001600160a01b038316600081815260366020908152604091829020805490869055825181815291820186905292917fa772babc4abb5a8ee02d244b0439c98118f115dcfb446d4f453f2fd37769c2d191016111c0565b60408051610140810182526000808252602082018190529181018290526060808201526080810182905260a0810182905260c0810182905260e08101829052610100810182905261012081019190915260008281526001602052604081205483910361130657604051632785786f60e21b815260040160405180910390fd5b600160008481526020019081526020016000206040518061014001604052908160008201548152602001600182015481526020016002820154815260200160038201805461135390612d90565b80601f016020809104026020016040519081016040528092919081815260200182805461137f90612d90565b80156113cc5780601f106113a1576101008083540402835291602001916113cc565b820191906000526020600020905b8154815290600101906020018083116113af57829003601f168201915b505050918352505060048201546001600160a01b03908116602083015260058301549081166040830152606090910190600160a01b900460ff16600381111561141757611417612a42565b600381111561142857611428612a42565b815260068201546001600160a01b031660208201526007820154604082015260089091015460609091015291505b50919050565b600061146781612185565b61102d7f2f3a5455f35aeca177ac653592f277fbe2fbafef01081a2030451bb2fb41c91d83610beb565b600061149c81612185565b61102d7ffbd454f36a7e1a388bd6fc3ab10d434aa4578f811acbbcf33afb1c697486313c83610beb565b6000918252600080516020613266833981519152602090815260408084206001600160a01b0393909316845291905290205460ff1690565b600061150981612185565b6001600160a01b03841660009081526037602052604090205460ff16156115435760405163967dce7b60e01b815260040160405180910390fd5b81611561576040516391cc577360e01b815260040160405180910390fd5b600080516020613206833981519152831415801561159f57507ffbd454f36a7e1a388bd6fc3ab10d434aa4578f811acbbcf33afb1c697486313c8314155b80156115cb57507f2f3a5455f35aeca177ac653592f277fbe2fbafef01081a2030451bb2fb41c91d8314155b156115e957604051636caa20b560e11b815260040160405180910390fd5b6001600160a01b038416600090815260366020908152604080832085905560379091529020805460ff191660011790556116238385612192565b5082846001600160a01b03167fdc473e331fef37c15ec2c5eb73a6e9aa85e43e62e7f0119230fb5ff7c09ba0e98460405161166091815260200190565b60405180910390a350505050565b600060008051602061320683398151915261168881612185565b8860008190036116ab5760405163521299a960e01b815260040160405180910390fd5b8781146116cb5760405163512509d360e11b815260040160405180910390fd5b8581146116eb5760405163512509d360e11b815260040160405180910390fd5b83811461170b5760405163512509d360e11b815260040160405180910390fd5b603281111561172d57604051630d67f41160e21b815260040160405180910390fd5b600054925060005b818110156119d6578b8b8281811061174f5761174f612ef8565b905060200201356000036117765760405163524f409b60e01b815260040160405180910390fd5b87878281811061178857611788612ef8565b905060200281019061179a9190612f0e565b90506000036117bc57604051636e6db68160e11b815260040160405180910390fd5b6000805480825260016020819052604083209182558101919091558c8c838181106117e9576117e9612ef8565b60200291909101356002830155508a8a8381811061180957611809612ef8565b905060200281019061181b9190612f0e565b600383019161182b919083612f54565b50600481018054336001600160a01b031990911681179091556005820180546001600160a81b03191660ff60a01b19831617905542600783018190556008830155600080546002805460018181019092557f405787fa12a823e0f2b7631cc41b3ba8828b3321ca811111fa75cd3aa3bb5ace01829055838352600360209081526040842080549283018155845283200155547f42d55efc71ff29a5dba03598254792f23970b6c957b980c6d0250a8e9476ff3a8f8f868181106118f0576118f0612ef8565b905060200201358e8e8781811061190957611909612ef8565b905060200281019061191b9190612f0e565b60405161192a9392919061300d565b60405180910390a360005460008051602061322683398151915260006040516119539190612d53565b60405180910390a260005433907fe8b80c90cb38fdf4122b4d1a7ce7a994b6529a890607c4842849e7f5110dd9b78b8b8681811061199357611993612ef8565b90506020028101906119a59190612f0e565b6040516119b3929190612d3f565b60405180910390a360008081546119c990612d77565b9091555050600101611735565b50336001600160a01b0316837fcc6cd9e66084e806fc5af1d4ce0acaea132a85783eb03815cc7a0f5929fb99e9838888604051611a1593929190613027565b60405180910390a3505098975050505050505050565b60008181526001602052604081205482908203611a5b57604051632785786f60e21b815260040160405180910390fd5b6000838152600160208190526040909120906005820154600160a01b900460ff166003811115611a8d57611a8d612a42565b14158015611abb575060036005820154600160a01b900460ff166003811115611ab857611ab8612a42565b14155b949350505050565b6000600080516020613206833981519152611add81612185565b8251600003611aff57604051636e6db68160e11b815260040160405180910390fd5b6000611b0b8686610e94565b9050336001600160a01b0316817fe8b80c90cb38fdf4122b4d1a7ce7a994b6529a890607c4842849e7f5110dd9b786604051611b479190612a05565b60405180910390a395945050505050565b60606002805480602002602001604051908101604052809291908181526020018280548015611ba657602002820191906000526020600020905b815481526020019060010190808311611b92575b5050505050905090565b6000611bba612470565b805490915060ff600160401b82041615906001600160401b0316600081158015611be15750825b90506000826001600160401b03166001148015611bfd5750303b155b905081158015611c0b575080155b15611c295760405163f92ee8a960e01b815260040160405180910390fd5b845467ffffffffffffffff191660011785558315611c5357845460ff60401b1916600160401b1785555b611c5b612499565b611c63612499565b611c6b6124a1565b611c76600087612192565b5060016000558315611cc257845460ff60401b19168555604051600181527fc7f505b2f371ae2175ee4913f4499e1f2633a7b5936321eed1cdaeb6115181d29060200160405180910390a15b505050505050565b600083815260016020526040812054849103611cf957604051632785786f60e21b815260040160405180910390fd5b60008481526001602052604090206004015484906001600160a01b03163314611d355760405163b72bcb2f60e01b815260040160405180910390fd5b846003600082815260016020526040902060050154600160a01b900460ff166003811115611d6557611d65612a42565b03611d835760405163bf08bbf360e01b815260040160405180910390fd5b856001600082815260016020526040902060050154600160a01b900460ff166003811115611db357611db3612a42565b03611dd1576040516304801a4160e11b815260040160405180910390fd5b336001600160a01b0316877f3e689ff88c84888294d5fed063d677af7d5f7224c361b335f0c1a67e53a584d38888604051611e0d9291906130d1565b60405180910390a3505050600093845250506001602052506040902042600890910155565b611e3b826109e9565b611e4481612185565b610c078383612237565b60008281526001602052604081205483908203611e7e57604051632785786f60e21b815260040160405180910390fd5b60008481526001602052604090206004015484906001600160a01b03163314611eba5760405163b72bcb2f60e01b815260040160405180910390fd5b846003600082815260016020526040902060050154600160a01b900460ff166003811115611eea57611eea612a42565b03611f085760405163bf08bbf360e01b815260040160405180910390fd5b856001600082815260016020526040902060050154600160a01b900460ff166003811115611f3857611f38612a42565b03611f56576040516304801a4160e11b815260040160405180910390fd5b611f5e612139565b600087815260016020526040812090879003611f8d5760405163524f409b60e01b815260040160405180910390fd5b8681600201541015611fb2576040516348e126c160e11b815260040160405180910390fd5b86816002016000828254611fc691906130f6565b9091555050426008820155600080548180611fe083612d77565b9091555060008181526001602081905260409091208281559081018b9055600281018a905590915060038082019061201a90850182613109565b506004810180546001600160a01b0319163390811790915560058481015490830180546001600160a81b0319166001600160a01b03909216919091179055426007830181905560088301556002805460018181019092557f405787fa12a823e0f2b7631cc41b3ba8828b3321ca811111fa75cd3aa3bb5ace01849055600082815260036020908152604080832080549485018155835291819020909201859055518b815284918d917f1b8a10c54a117691bc6b30aa896e2fed590f7e5b84efbb07d7933168a6b5609d910160405180910390a481600080516020613226833981519152600060405161210c9190612d53565b60405180910390a25095505061212f600160008051602061328683398151915255565b5050505092915050565b60008051602061328683398151915280546001190161216b57604051633ee5aeb560e01b815260040160405180910390fd5b60029055565b600160008051602061328683398151915255565b61218f81336124b1565b50565b60006000805160206132668339815191526121ad84846114c6565b61222d576000848152602082815260408083206001600160a01b03871684529091529020805460ff191660011790556121e33390565b6001600160a01b0316836001600160a01b0316857f2f8788117e7eff1d82e926ec794901d17c78024a50270940304540a733656f0d60405160405180910390a4600191505061089d565b600091505061089d565b600060008051602061326683398151915261225284846114c6565b1561222d576000848152602082815260408083206001600160a01b0387168085529252808320805460ff1916905551339287917ff6391f5c32d9c69d2a47ea670b442974b53935d1edc7fd64eb21e047a839171b9190a4600191505061089d565b306001600160a01b037f000000000000000000000000000000000000000000000000000000000000000016148061233a57507f00000000000000000000000000000000000000000000000000000000000000006001600160a01b031661232e600080516020613246833981519152546001600160a01b031690565b6001600160a01b031614155b156123585760405163703e46dd60e11b815260040160405180910390fd5b565b600061102d81612185565b816001600160a01b03166352d1902d6040518163ffffffff1660e01b8152600401602060405180830381865afa9250505080156123bf575060408051601f3d908101601f191682019092526123bc918101906131d0565b60015b6123ec57604051634c9c8ce360e01b81526001600160a01b03831660048201526024015b60405180910390fd5b600080516020613246833981519152811461241d57604051632a87526960e21b8152600481018290526024016123e3565b610be683836124ea565b306001600160a01b037f000000000000000000000000000000000000000000000000000000000000000016146123585760405163703e46dd60e11b815260040160405180910390fd5b6000807ff0c57e16840df040f15088dc2f81fe391c3923bec73e23a9662efc9c229c6a0061089d565b612358612540565b6124a9612540565b612358612565565b6124bb82826114c6565b61102d5760405163e2517d3f60e01b81526001600160a01b0382166004820152602481018390526044016123e3565b6124f38261256d565b6040516001600160a01b038316907fbc7cd75a20ee27fd9adebab32041f755214dbc6bffa90cc0225b39da2e5c2d3b90600090a280511561253857610be682826125d2565b61102d612648565b612548612667565b61235857604051631afcd79f60e31b815260040160405180910390fd5b612171612540565b806001600160a01b03163b6000036125a357604051634c9c8ce360e01b81526001600160a01b03821660048201526024016123e3565b60008051602061324683398151915280546001600160a01b0319166001600160a01b0392909216919091179055565b6060600080846001600160a01b0316846040516125ef91906131e9565b600060405180830381855af49150503d806000811461262a576040519150601f19603f3d011682016040523d82523d6000602084013e61262f565b606091505b509150915061263f858383612681565b95945050505050565b34156123585760405163b398979f60e01b815260040160405180910390fd5b6000612671612470565b54600160401b900460ff16919050565b60608261269657612691826126dd565b61108d565b81511580156126ad57506001600160a01b0384163b155b156126d657604051639996b31560e01b81526001600160a01b03851660048201526024016123e3565b5092915050565b8051156126ec57805160208201fd5b60405163d6bda27560e01b815260040160405180910390fd5b634e487b7160e01b600052604160045260246000fd5b6000806001600160401b0384111561273557612735612705565b50604051601f19601f85018116603f011681018181106001600160401b038211171561276357612763612705565b60405283815290508082840185101561277b57600080fd5b83836020830137600060208583010152509392505050565b600082601f8301126127a457600080fd5b61108d8383356020850161271b565b600080604083850312156127c657600080fd5b8235915060208301356001600160401b038111156127e357600080fd5b6127ef85828601612793565b9150509250929050565b60006020828403121561280b57600080fd5b81356001600160e01b03198116811461108d57600080fd5b60008060006040848603121561283857600080fd5b8335925060208401356001600160401b0381111561285557600080fd5b8401601f8101861361286657600080fd5b80356001600160401b0381111561287c57600080fd5b86602082840101111561288e57600080fd5b939660209190910195509293505050565b80356001600160a01b03811681146128b657600080fd5b919050565b6000602082840312156128cd57600080fd5b61108d8261289f565b6000602082840312156128e857600080fd5b5035919050565b6000806040838503121561290257600080fd5b823591506129126020840161289f565b90509250929050565b602080825282518282018190526000918401906040840190835b81811015612953578351835260209384019390920191600101612935565b509095945050505050565b6000806040838503121561297157600080fd5b61297a8361289f565b915060208301356001600160401b0381111561299557600080fd5b8301601f810185136129a657600080fd5b6127ef8582356020840161271b565b60005b838110156129d05781810151838201526020016129b8565b50506000910152565b600081518084526129f18160208601602086016129b5565b601f01601f19169290920160200192915050565b60208152600061108d60208301846129d9565b60008060408385031215612a2b57600080fd5b612a348361289f565b946020939093013593505050565b634e487b7160e01b600052602160045260246000fd5b60048110612a7657634e487b7160e01b600052602160045260246000fd5b9052565b60208152815160208201526020820151604082015260408201516060820152600060608301516101406080840152612ab66101608401826129d9565b90506080840151612ad260a08501826001600160a01b03169052565b5060a08401516001600160a01b03811660c08501525060c0840151612afa60e0850182612a58565b5060e08401516001600160a01b038116610100850152506101008401516101208401526101208401516101408401528091505092915050565b600080600060608486031215612b4857600080fd5b612b518461289f565b95602085013595506040909401359392505050565b60008083601f840112612b7857600080fd5b5081356001600160401b03811115612b8f57600080fd5b6020830191508360208260051b8501011115612baa57600080fd5b9250929050565b6000806000806000806000806080898b031215612bcd57600080fd5b88356001600160401b03811115612be357600080fd5b612bef8b828c01612b66565b90995097505060208901356001600160401b03811115612c0e57600080fd5b612c1a8b828c01612b66565b90975095505060408901356001600160401b03811115612c3957600080fd5b612c458b828c01612b66565b90955093505060608901356001600160401b03811115612c6457600080fd5b612c708b828c01612b66565b999c989b5096995094979396929594505050565b600080600060608486031215612c9957600080fd5b8335925060208401356001600160401b03811115612cb657600080fd5b612cc286828701612793565b92505060408401356001600160401b03811115612cde57600080fd5b612cea86828701612793565b9150509250925092565b60008060408385031215612d0757600080fd5b50508035926020909101359150565b81835281816020850137506000828201602090810191909152601f909101601f19169091010190565b602081526000611abb602083018486612d16565b6020810161089d8284612a58565b634e487b7160e01b600052601160045260246000fd5b600060018201612d8957612d89612d61565b5060010190565b600181811c90821680612da457607f821691505b60208210810361145657634e487b7160e01b600052602260045260246000fd5b601f821115610be657806000526020600020601f840160051c81016020851015612deb5750805b601f840160051c820191505b81811015612e0b5760008155600101612df7565b5050505050565b600019600383901b1c191660019190911b1790565b81516001600160401b03811115612e4057612e40612705565b612e5481612e4e8454612d90565b84612dc4565b6020601f821160018114612e825760008315612e705750848201515b612e7a8482612e12565b855550612e0b565b600084815260208120601f198516915b82811015612eb25787850151825560209485019460019092019101612e92565b5084821015612ed05786840151600019600387901b60f8161c191681555b50505050600190811b01905550565b828152604060208201526000611abb60408301846129d9565b634e487b7160e01b600052603260045260246000fd5b6000808335601e19843603018112612f2557600080fd5b8301803591506001600160401b03821115612f3f57600080fd5b602001915036819003821315612baa57600080fd5b6001600160401b03831115612f6b57612f6b612705565b612f7f83612f798354612d90565b83612dc4565b6000601f841160018114612fad5760008515612f9b5750838201355b612fa58682612e12565b845550612e0b565b600083815260209020601f19861690835b82811015612fde5786850135825560209485019460019092019101612fbe565b5086821015612ffb5760001960f88860031b161c19848701351681555b505060018560011b0183555050505050565b83815260406020820152600061263f604083018486612d16565b838152604060208201819052810182905260006060600584901b830181019083018583601e1936839003015b878210156130c357868503605f19018452823581811261307257600080fd5b89016020810190356001600160401b0381111561308e57600080fd5b80360382131561309d57600080fd5b6130a8878284612d16565b96505050602083019250602084019350600182019150613053565b509298975050505050505050565b6040815260006130e460408301856129d9565b828103602084015261263f81856129d9565b8181038181111561089d5761089d612d61565b818103613114575050565b61311e8254612d90565b6001600160401b0381111561313557613135612705565b61314381612e4e8454612d90565b6000601f8211600181146131685760008315612e70575084820154612e7a8482612e12565b600085815260209020601f19841690600086815260209020845b838110156131a25782860154825560019586019590910190602001613182565b50858310156131c05781850154600019600388901b60f8161c191681555b5050505050600190811b01905550565b6000602082840312156131e257600080fd5b5051919050565b600082516131fb8184602087016129b5565b919091019291505056feeefb95e842a3287179d933b4460be539a1d5af11aa8b325bb45c5c8dc92de4edd486302b9905c799946ddddece7405125187fa786dbcfd92040f328b6bc84b55360894a13ba1a3210667c828492db98dca3e2076cc3735a920a3ca505d382bbc02dd7bc7dec4dceedda775e58dd541e08a116c6c53815c0bd028192f7b6268009b779b17422d0df92223018b32b4d1fa46e071723d6817e2486d003becc55f00a264697066735822122040b8ba6a21072bb1f854b9be812dc0ed87dd1e3c062bdfb1c6806fd3dd593fbe64736f6c634300081c0033",
  "linkReferences": {},
  "deployedLinkReferences": {}
}